{
  "_format": "hh-sol-artifact-1",
  "contractName": "VaultAuction",
  "sourceName": "contracts/VaultAuction.sol",
  "abi": [
    {
      "inputs": [],
      "name": "ReentrancyGuardReentrantCall",
      "type": "error"
    },
    {
      "anonymous": false,
      "inputs": [
        {
          "indexed": true,
          "internalType": "uint256",
          "name": "vaultId",
          "type": "uint256"
        },
        {
          "indexed": false,
          "internalType": "uint256",
          "name": "startPrice",
          "type": "uint256"
        }
      ],
      "name": "AuctionCreated",
      "type": "event"
    },
    {
      "anonymous": false,
      "inputs": [
        {
          "indexed": true,
          "internalType": "uint256",
          "name": "vaultId",
          "type": "uint256"
        },
        {
          "indexed": false,
          "internalType": "address",
          "name": "winner",
          "type": "address"
        },
        {
          "indexed": false,
          "internalType": "uint256",
          "name": "finalPrice",
          "type": "uint256"
        }
      ],
      "name": "AuctionEnded",
      "type": "event"
    },
    {
      "anonymous": false,
      "inputs": [
        {
          "indexed": true,
          "internalType": "uint256",
          "name": "vaultId",
          "type": "uint256"
        },
        {
          "indexed": false,
          "internalType": "uint256",
          "name": "startTime",
          "type": "uint256"
        },
        {
          "indexed": false,
          "internalType": "uint256",
          "name": "endTime",
          "type": "uint256"
        }
      ],
      "name": "AuctionStarted",
      "type": "event"
    },
    {
      "anonymous": false,
      "inputs": [
        {
          "indexed": true,
          "internalType": "uint256",
          "name": "vaultId",
          "type": "uint256"
        },
        {
          "indexed": false,
          "internalType": "address",
          "name": "bidder",
          "type": "address"
        },
        {
          "indexed": false,
          "internalType": "uint256",
          "name": "amount",
          "type": "uint256"
        }
      ],
      "name": "BidPlaced",
      "type": "event"
    },
    {
      "anonymous": false,
      "inputs": [
        {
          "indexed": true,
          "internalType": "uint256",
          "name": "vaultId",
          "type": "uint256"
        },
        {
          "indexed": true,
          "internalType": "address",
          "name": "seller",
          "type": "address"
        }
      ],
      "name": "VaultCreated",
      "type": "event"
    },
    {
      "inputs": [
        {
          "internalType": "uint256",
          "name": "",
          "type": "uint256"
        }
      ],
      "name": "auctionIds",
      "outputs": [
        {
          "internalType": "uint256",
          "name": "",
          "type": "uint256"
        }
      ],
      "stateMutability": "view",
      "type": "function"
    },
    {
      "inputs": [
        {
          "internalType": "uint256",
          "name": "vaultId",
          "type": "uint256"
        }
      ],
      "name": "bid",
      "outputs": [],
      "stateMutability": "payable",
      "type": "function"
    },
    {
      "inputs": [
        {
          "internalType": "uint256",
          "name": "vaultId",
          "type": "uint256"
        },
        {
          "internalType": "uint256",
          "name": "startPrice",
          "type": "uint256"
        },
        {
          "internalType": "uint256",
          "name": "auctionDuration",
          "type": "uint256"
        }
      ],
      "name": "createAuction",
      "outputs": [],
      "stateMutability": "nonpayable",
      "type": "function"
    },
    {
      "inputs": [
        {
          "internalType": "address[]",
          "name": "nftAddresses",
          "type": "address[]"
        },
        {
          "internalType": "uint256[]",
          "name": "tokenIds",
          "type": "uint256[]"
        },
        {
          "internalType": "string",
          "name": "name",
          "type": "string"
        },
        {
          "internalType": "string",
          "name": "description",
          "type": "string"
        }
      ],
      "name": "createVault",
      "outputs": [],
      "stateMutability": "nonpayable",
      "type": "function"
    },
    {
      "inputs": [
        {
          "internalType": "uint256",
          "name": "vaultId",
          "type": "uint256"
        }
      ],
      "name": "endAuction",
      "outputs": [],
      "stateMutability": "nonpayable",
      "type": "function"
    },
    {
      "inputs": [],
      "name": "getAllAuctions",
      "outputs": [
        {
          "internalType": "uint256[]",
          "name": "",
          "type": "uint256[]"
        }
      ],
      "stateMutability": "view",
      "type": "function"
    },
    {
      "inputs": [
        {
          "internalType": "uint256",
          "name": "vaultId",
          "type": "uint256"
        }
      ],
      "name": "getAuction",
      "outputs": [
        {
          "components": [
            {
              "internalType": "address",
              "name": "seller",
              "type": "address"
            },
            {
              "internalType": "uint256",
              "name": "currentBid",
              "type": "uint256"
            },
            {
              "internalType": "address",
              "name": "highestBidder",
              "type": "address"
            },
            {
              "internalType": "uint256",
              "name": "startTime",
              "type": "uint256"
            },
            {
              "internalType": "uint256",
              "name": "lastBidTime",
              "type": "uint256"
            },
            {
              "internalType": "uint256",
              "name": "bidWindow",
              "type": "uint256"
            },
            {
              "internalType": "uint256",
              "name": "auctionDuration",
              "type": "uint256"
            },
            {
              "internalType": "uint256",
              "name": "endTime",
              "type": "uint256"
            },
            {
              "internalType": "bool",
              "name": "active",
              "type": "bool"
            },
            {
              "internalType": "bool",
              "name": "ended",
              "type": "bool"
            },
            {
              "internalType": "uint256",
              "name": "startPrice",
              "type": "uint256"
            }
          ],
          "internalType": "struct VaultAuction.Auction",
          "name": "",
          "type": "tuple"
        }
      ],
      "stateMutability": "view",
      "type": "function"
    },
    {
      "inputs": [
        {
          "internalType": "uint256",
          "name": "vaultId",
          "type": "uint256"
        }
      ],
      "name": "getAuctionTiming",
      "outputs": [
        {
          "internalType": "uint256",
          "name": "lastBidTime",
          "type": "uint256"
        },
        {
          "internalType": "uint256",
          "name": "bidWindow",
          "type": "uint256"
        },
        {
          "internalType": "uint256",
          "name": "endTime",
          "type": "uint256"
        },
        {
          "internalType": "bool",
          "name": "active",
          "type": "bool"
        },
        {
          "internalType": "bool",
          "name": "ended",
          "type": "bool"
        }
      ],
      "stateMutability": "view",
      "type": "function"
    },
    {
      "inputs": [
        {
          "internalType": "uint256",
          "name": "vaultId",
          "type": "uint256"
        }
      ],
      "name": "startAuction",
      "outputs": [],
      "stateMutability": "nonpayable",
      "type": "function"
    },
    {
      "inputs": [],
      "name": "vaultCount",
      "outputs": [
        {
          "internalType": "uint256",
          "name": "",
          "type": "uint256"
        }
      ],
      "stateMutability": "view",
      "type": "function"
    },
    {
      "inputs": [
        {
          "internalType": "uint256",
          "name": "",
          "type": "uint256"
        }
      ],
      "name": "vaults",
      "outputs": [
        {
          "components": [
            {
              "internalType": "address",
              "name": "seller",
              "type": "address"
            },
            {
              "internalType": "uint256",
              "name": "currentBid",
              "type": "uint256"
            },
            {
              "internalType": "address",
              "name": "highestBidder",
              "type": "address"
            },
            {
              "internalType": "uint256",
              "name": "startTime",
              "type": "uint256"
            },
            {
              "internalType": "uint256",
              "name": "lastBidTime",
              "type": "uint256"
            },
            {
              "internalType": "uint256",
              "name": "bidWindow",
              "type": "uint256"
            },
            {
              "internalType": "uint256",
              "name": "auctionDuration",
              "type": "uint256"
            },
            {
              "internalType": "uint256",
              "name": "endTime",
              "type": "uint256"
            },
            {
              "internalType": "bool",
              "name": "active",
              "type": "bool"
            },
            {
              "internalType": "bool",
              "name": "ended",
              "type": "bool"
            },
            {
              "internalType": "uint256",
              "name": "startPrice",
              "type": "uint256"
            }
          ],
          "internalType": "struct VaultAuction.Auction",
          "name": "auction",
          "type": "tuple"
        },
        {
          "internalType": "string",
          "name": "name",
          "type": "string"
        },
        {
          "internalType": "string",
          "name": "description",
          "type": "string"
        }
      ],
      "stateMutability": "view",
      "type": "function"
    }
  ],
  "bytecode": "0x6080604052348015600f57600080fd5b5060016000819055506128a1806100276000396000f3fe60806040526004361061009c5760003560e01c80638c64ea4a116100645780638c64ea4a14610189578063a7c6a100146101c8578063b033b97c146101f3578063b9a2de3a14610234578063cbd2bdfd1461025d578063cda4beef146102885761009c565b8063065de74c146100a15780632a6433be146100ca578063454a2ab31461010757806363c2c9171461012357806378bd79351461014c575b600080fd5b3480156100ad57600080fd5b506100c860048036038101906100c39190611793565b6102b1565b005b3480156100d657600080fd5b506100f160048036038101906100ec9190611793565b6104e0565b6040516100fe91906117cf565b60405180910390f35b610121600480360381019061011c9190611793565b610504565b005b34801561012f57600080fd5b5061014a600480360381019061014591906118fb565b6107e4565b005b34801561015857600080fd5b50610173600480360381019061016e9190611793565b610b1c565b6040516101809190611b30565b60405180910390f35b34801561019557600080fd5b506101b060048036038101906101ab9190611793565b610c75565b6040516101bf93929190611bdc565b60405180910390f35b3480156101d457600080fd5b506101dd610ee2565b6040516101ea91906117cf565b60405180910390f35b3480156101ff57600080fd5b5061021a60048036038101906102159190611793565b610ee8565b60405161022b959493929190611c33565b60405180910390f35b34801561024057600080fd5b5061025b60048036038101906102569190611793565b610f50565b005b34801561026957600080fd5b5061027261144b565b60405161027f9190611d35565b60405180910390f35b34801561029457600080fd5b506102af60048036038101906102aa9190611d57565b6114a3565b005b806002600082815260200190815260200160002060010160000160009054906101000a900473ffffffffffffffffffffffffffffffffffffffff1673ffffffffffffffffffffffffffffffffffffffff163373ffffffffffffffffffffffffffffffffffffffff1614610359576040517f08c379a000000000000000000000000000000000000000000000000000000000815260040161035090611df6565b60405180910390fd5b60006002600084815260200190815260200160002060010190508060080160009054906101000a900460ff16156103c5576040517f08c379a00000000000000000000000000000000000000000000000000000000081526004016103bc90611e62565b60405180910390fd5b600081600901541161040c576040517f08c379a000000000000000000000000000000000000000000000000000000000815260040161040390611ece565b60405180910390fd5b42816003018190555042816004018190555080600601544261042e9190611f1d565b816007018190555060018160080160006101000a81548160ff02191690831515021790555060008160080160016101000a81548160ff0219169083151502179055506003839080600181540180825580915050600190039060005260206000200160009091909190915055827f44c53be110c6aa83aa83cd02e351ed172359268272ee1b5d31c0fe48db35c6c7826003015483600701546040516104d3929190611f51565b60405180910390a2505050565b600381815481106104f057600080fd5b906000526020600020016000915090505481565b61050c611679565b60006002600083815260200190815260200160002060010190508060080160009054906101000a900460ff16801561055357508060080160019054906101000a900460ff16155b610592576040517f08c379a000000000000000000000000000000000000000000000000000000000815260040161058990611fc6565b60405180910390fd5b80600701544211156105d9576040517f08c379a00000000000000000000000000000000000000000000000000000000081526004016105d090612032565b60405180910390fd5b806005015481600401546105ed9190611f1d565b42111561062f576040517f08c379a00000000000000000000000000000000000000000000000000000000081526004016106269061209e565b60405180910390fd5b600181600101546106409190611f1d565b3414610681576040517f08c379a00000000000000000000000000000000000000000000000000000000081526004016106789061210a565b60405180910390fd5b600073ffffffffffffffffffffffffffffffffffffffff168160020160009054906101000a900473ffffffffffffffffffffffffffffffffffffffff1673ffffffffffffffffffffffffffffffffffffffff1614610749578060020160009054906101000a900473ffffffffffffffffffffffffffffffffffffffff1673ffffffffffffffffffffffffffffffffffffffff166108fc82600101549081150290604051600060405180830381858888f19350505050158015610747573d6000803e3d6000fd5b505b348160010181905550338160020160006101000a81548173ffffffffffffffffffffffffffffffffffffffff021916908373ffffffffffffffffffffffffffffffffffffffff160217905550428160040181905550817f0e54eff26401bf69b81b26f60bd85ef47f5d85275c1d268d84f68d6897431c4733346040516107d0929190612139565b60405180910390a2506107e16116bf565b50565b85859050888890501461082c576040517f08c379a0000000000000000000000000000000000000000000000000000000008152600401610823906121ae565b60405180910390fd5b60008888905011610872576040517f08c379a00000000000000000000000000000000000000000000000000000000081526004016108699061221a565b60405180910390fd5b60006001549050600060026000838152602001908152602001600020905060005b8a8a9050811015610a45578a8a828181106108b1576108b061223a565b5b90506020020160208101906108c69190612295565b73ffffffffffffffffffffffffffffffffffffffff166323b872dd33308c8c868181106108f6576108f561223a565b5b905060200201356040518463ffffffff1660e01b815260040161091b939291906122c2565b600060405180830381600087803b15801561093557600080fd5b505af1158015610949573d6000803e3d6000fd5b505050508160000160405180604001604052808d8d8581811061096f5761096e61223a565b5b90506020020160208101906109849190612295565b73ffffffffffffffffffffffffffffffffffffffff1681526020018b8b858181106109b2576109b161223a565b5b90506020020135815250908060018154018082558091505060019003906000526020600020906002020160009091909190915060008201518160000160006101000a81548173ffffffffffffffffffffffffffffffffffffffff021916908373ffffffffffffffffffffffffffffffffffffffff1602179055506020820151816001015550508080600101915050610893565b50338160010160000160006101000a81548173ffffffffffffffffffffffffffffffffffffffff021916908373ffffffffffffffffffffffffffffffffffffffff160217905550858582600b019182610a9f92919061253f565b50838382600c019182610ab392919061253f565b5060016000815480929190610ac79061260f565b91905055503373ffffffffffffffffffffffffffffffffffffffff16827fbf3e9c93de94306b70ac5b9411edf475545815333bf651b894b9eada6482c59460405160405180910390a350505050505050505050565b610b246116c9565b60026000838152602001908152602001600020600101604051806101600160405290816000820160009054906101000a900473ffffffffffffffffffffffffffffffffffffffff1673ffffffffffffffffffffffffffffffffffffffff1673ffffffffffffffffffffffffffffffffffffffff168152602001600182015481526020016002820160009054906101000a900473ffffffffffffffffffffffffffffffffffffffff1673ffffffffffffffffffffffffffffffffffffffff1673ffffffffffffffffffffffffffffffffffffffff16815260200160038201548152602001600482015481526020016005820154815260200160068201548152602001600782015481526020016008820160009054906101000a900460ff161515151581526020016008820160019054906101000a900460ff161515151581526020016009820154815250509050919050565b600260205280600052604060002060009150905080600101604051806101600160405290816000820160009054906101000a900473ffffffffffffffffffffffffffffffffffffffff1673ffffffffffffffffffffffffffffffffffffffff1673ffffffffffffffffffffffffffffffffffffffff168152602001600182015481526020016002820160009054906101000a900473ffffffffffffffffffffffffffffffffffffffff1673ffffffffffffffffffffffffffffffffffffffff1673ffffffffffffffffffffffffffffffffffffffff16815260200160038201548152602001600482015481526020016005820154815260200160068201548152602001600782015481526020016008820160009054906101000a900460ff161515151581526020016008820160019054906101000a900460ff161515151581526020016009820154815250509080600b018054610dd190612362565b80601f0160208091040260200160405190810160405280929190818152602001828054610dfd90612362565b8015610e4a5780601f10610e1f57610100808354040283529160200191610e4a565b820191906000526020600020905b815481529060010190602001808311610e2d57829003601f168201915b50505050509080600c018054610e5f90612362565b80601f0160208091040260200160405190810160405280929190818152602001828054610e8b90612362565b8015610ed85780601f10610ead57610100808354040283529160200191610ed8565b820191906000526020600020905b815481529060010190602001808311610ebb57829003601f168201915b5050505050905083565b60015481565b6000806000806000806002600088815260200190815260200160002060010190508060040154816005015482600701548360080160009054906101000a900460ff168460080160019054906101000a900460ff16955095509550955095505091939590929450565b610f58611679565b600060026000838152602001908152602001600020600101905060006002600084815260200190815260200160002090508160080160009054906101000a900460ff168015610fb657508160080160019054906101000a900460ff16155b610ff5576040517f08c379a0000000000000000000000000000000000000000000000000000000008152600401610fec906126a3565b60405180910390fd5b81600701544211806110195750816005015482600401546110169190611f1d565b42115b611058576040517f08c379a000000000000000000000000000000000000000000000000000000000815260040161104f9061270f565b60405180910390fd5b60008260080160006101000a81548160ff02191690831515021790555060018260080160016101000a81548160ff021916908315150217905550600073ffffffffffffffffffffffffffffffffffffffff168260020160009054906101000a900473ffffffffffffffffffffffffffffffffffffffff1673ffffffffffffffffffffffffffffffffffffffff16146112e15760005b816000018054905081101561120a578160000181815481106111125761111161223a565b5b906000526020600020906002020160000160009054906101000a900473ffffffffffffffffffffffffffffffffffffffff1673ffffffffffffffffffffffffffffffffffffffff166323b872dd308560020160009054906101000a900473ffffffffffffffffffffffffffffffffffffffff1685600001858154811061119b5761119a61223a565b5b9060005260206000209060020201600101546040518463ffffffff1660e01b81526004016111cb939291906122c2565b600060405180830381600087803b1580156111e557600080fd5b505af11580156111f9573d6000803e3d6000fd5b5050505080806001019150506110ed565b508160000160009054906101000a900473ffffffffffffffffffffffffffffffffffffffff1673ffffffffffffffffffffffffffffffffffffffff166108fc83600101549081150290604051600060405180830381858888f19350505050158015611279573d6000803e3d6000fd5b50827fd2aa34a4fdbbc6dff6a3e56f46e0f3ae2a31d7785ff3487aa5c95c642acea5018360020160009054906101000a900473ffffffffffffffffffffffffffffffffffffffff1684600101546040516112d4929190612139565b60405180910390a261143e565b60005b8160000180549050811015611401578160000181815481106113095761130861223a565b5b906000526020600020906002020160000160009054906101000a900473ffffffffffffffffffffffffffffffffffffffff1673ffffffffffffffffffffffffffffffffffffffff166323b872dd308560000160009054906101000a900473ffffffffffffffffffffffffffffffffffffffff168560000185815481106113925761139161223a565b5b9060005260206000209060020201600101546040518463ffffffff1660e01b81526004016113c2939291906122c2565b600060405180830381600087803b1580156113dc57600080fd5b505af11580156113f0573d6000803e3d6000fd5b5050505080806001019150506112e4565b50827fd2aa34a4fdbbc6dff6a3e56f46e0f3ae2a31d7785ff3487aa5c95c642acea50160008060405161143592919061276a565b60405180910390a25b50506114486116bf565b50565b6060600380548060200260200160405190810160405280929190818152602001828054801561149957602002820191906000526020600020905b815481526020019060010190808311611485575b5050505050905090565b826002600082815260200190815260200160002060010160000160009054906101000a900473ffffffffffffffffffffffffffffffffffffffff1673ffffffffffffffffffffffffffffffffffffffff163373ffffffffffffffffffffffffffffffffffffffff161461154b576040517f08c379a000000000000000000000000000000000000000000000000000000000815260040161154290611df6565b60405180910390fd5b60006002600086815260200190815260200160002060010190508060080160009054906101000a900460ff1615801561159357508060080160019054906101000a900460ff16155b6115d2576040517f08c379a00000000000000000000000000000000000000000000000000000000081526004016115c9906127df565b60405180910390fd5b60008311611615576040517f08c379a000000000000000000000000000000000000000000000000000000000815260040161160c9061284b565b60405180910390fd5b838160090181905550838160010181905550601e8160050181905550828160060181905550847fe00a2da3a0f34a566402a244ab7ec63f8ab7472591cb18edf3269aa00461a4108560405161166a91906117cf565b60405180910390a25050505050565b6002600054036116b5576040517f3ee5aeb500000000000000000000000000000000000000000000000000000000815260040160405180910390fd5b6002600081905550565b6001600081905550565b604051806101600160405280600073ffffffffffffffffffffffffffffffffffffffff16815260200160008152602001600073ffffffffffffffffffffffffffffffffffffffff1681526020016000815260200160008152602001600081526020016000815260200160008152602001600015158152602001600015158152602001600081525090565b600080fd5b600080fd5b6000819050919050565b6117708161175d565b811461177b57600080fd5b50565b60008135905061178d81611767565b92915050565b6000602082840312156117a9576117a8611753565b5b60006117b78482850161177e565b91505092915050565b6117c98161175d565b82525050565b60006020820190506117e460008301846117c0565b92915050565b600080fd5b600080fd5b600080fd5b60008083601f84011261180f5761180e6117ea565b5b8235905067ffffffffffffffff81111561182c5761182b6117ef565b5b602083019150836020820283011115611848576118476117f4565b5b9250929050565b60008083601f840112611865576118646117ea565b5b8235905067ffffffffffffffff811115611882576118816117ef565b5b60208301915083602082028301111561189e5761189d6117f4565b5b9250929050565b60008083601f8401126118bb576118ba6117ea565b5b8235905067ffffffffffffffff8111156118d8576118d76117ef565b5b6020830191508360018202830111156118f4576118f36117f4565b5b9250929050565b6000806000806000806000806080898b03121561191b5761191a611753565b5b600089013567ffffffffffffffff81111561193957611938611758565b5b6119458b828c016117f9565b9850985050602089013567ffffffffffffffff81111561196857611967611758565b5b6119748b828c0161184f565b9650965050604089013567ffffffffffffffff81111561199757611996611758565b5b6119a38b828c016118a5565b9450945050606089013567ffffffffffffffff8111156119c6576119c5611758565b5b6119d28b828c016118a5565b92509250509295985092959890939650565b600073ffffffffffffffffffffffffffffffffffffffff82169050919050565b6000611a0f826119e4565b9050919050565b611a1f81611a04565b82525050565b611a2e8161175d565b82525050565b60008115159050919050565b611a4981611a34565b82525050565b61016082016000820151611a666000850182611a16565b506020820151611a796020850182611a25565b506040820151611a8c6040850182611a16565b506060820151611a9f6060850182611a25565b506080820151611ab26080850182611a25565b5060a0820151611ac560a0850182611a25565b5060c0820151611ad860c0850182611a25565b5060e0820151611aeb60e0850182611a25565b50610100820151611b00610100850182611a40565b50610120820151611b15610120850182611a40565b50610140820151611b2a610140850182611a25565b50505050565b600061016082019050611b466000830184611a4f565b92915050565b600081519050919050565b600082825260208201905092915050565b60005b83811015611b86578082015181840152602081019050611b6b565b60008484015250505050565b6000601f19601f8301169050919050565b6000611bae82611b4c565b611bb88185611b57565b9350611bc8818560208601611b68565b611bd181611b92565b840191505092915050565b60006101a082019050611bf26000830186611a4f565b818103610160830152611c058185611ba3565b9050818103610180830152611c1a8184611ba3565b9050949350505050565b611c2d81611a34565b82525050565b600060a082019050611c4860008301886117c0565b611c5560208301876117c0565b611c6260408301866117c0565b611c6f6060830185611c24565b611c7c6080830184611c24565b9695505050505050565b600081519050919050565b600082825260208201905092915050565b6000819050602082019050919050565b6000611cbe8383611a25565b60208301905092915050565b6000602082019050919050565b6000611ce282611c86565b611cec8185611c91565b9350611cf783611ca2565b8060005b83811015611d28578151611d0f8882611cb2565b9750611d1a83611cca565b925050600181019050611cfb565b5085935050505092915050565b60006020820190508181036000830152611d4f8184611cd7565b905092915050565b600080600060608486031215611d7057611d6f611753565b5b6000611d7e8682870161177e565b9350506020611d8f8682870161177e565b9250506040611da08682870161177e565b9150509250925092565b7f4e6f74207661756c742073656c6c657200000000000000000000000000000000600082015250565b6000611de0601083611b57565b9150611deb82611daa565b602082019050919050565b60006020820190508181036000830152611e0f81611dd3565b9050919050565b7f416c726561647920616374697665000000000000000000000000000000000000600082015250565b6000611e4c600e83611b57565b9150611e5782611e16565b602082019050919050565b60006020820190508181036000830152611e7b81611e3f565b9050919050565b7f41756374696f6e206e6f74206372656174656400000000000000000000000000600082015250565b6000611eb8601383611b57565b9150611ec382611e82565b602082019050919050565b60006020820190508181036000830152611ee781611eab565b9050919050565b7f4e487b7100000000000000000000000000000000000000000000000000000000600052601160045260246000fd5b6000611f288261175d565b9150611f338361175d565b9250828201905080821115611f4b57611f4a611eee565b5b92915050565b6000604082019050611f6660008301856117c0565b611f7360208301846117c0565b9392505050565b7f41756374696f6e20696e61637469766500000000000000000000000000000000600082015250565b6000611fb0601083611b57565b9150611fbb82611f7a565b602082019050919050565b60006020820190508181036000830152611fdf81611fa3565b9050919050565b7f41756374696f6e206475726174696f6e20656e64656400000000000000000000600082015250565b600061201c601683611b57565b915061202782611fe6565b602082019050919050565b6000602082019050818103600083015261204b8161200f565b9050919050565b7f4269642077696e646f7720657870697265640000000000000000000000000000600082015250565b6000612088601283611b57565b915061209382612052565b602082019050919050565b600060208201905081810360008301526120b78161207b565b9050919050565b7f426964206d757374206265202b31000000000000000000000000000000000000600082015250565b60006120f4600e83611b57565b91506120ff826120be565b602082019050919050565b60006020820190508181036000830152612123816120e7565b9050919050565b61213381611a04565b82525050565b600060408201905061214e600083018561212a565b61215b60208301846117c0565b9392505050565b7f4c656e677468206d69736d617463680000000000000000000000000000000000600082015250565b6000612198600f83611b57565b91506121a382612162565b602082019050919050565b600060208201905081810360008301526121c78161218b565b9050919050565b7f456d707479207661756c74000000000000000000000000000000000000000000600082015250565b6000612204600b83611b57565b915061220f826121ce565b602082019050919050565b60006020820190508181036000830152612233816121f7565b9050919050565b7f4e487b7100000000000000000000000000000000000000000000000000000000600052603260045260246000fd5b61227281611a04565b811461227d57600080fd5b50565b60008135905061228f81612269565b92915050565b6000602082840312156122ab576122aa611753565b5b60006122b984828501612280565b91505092915050565b60006060820190506122d7600083018661212a565b6122e4602083018561212a565b6122f160408301846117c0565b949350505050565b600082905092915050565b7f4e487b7100000000000000000000000000000000000000000000000000000000600052604160045260246000fd5b7f4e487b7100000000000000000000000000000000000000000000000000000000600052602260045260246000fd5b6000600282049050600182168061237a57607f821691505b60208210810361238d5761238c612333565b5b50919050565b60008190508160005260206000209050919050565b60006020601f8301049050919050565b600082821b905092915050565b6000600883026123f57fffffffffffffffffffffffffffffffffffffffffffffffffffffffffffffffff826123b8565b6123ff86836123b8565b95508019841693508086168417925050509392505050565b6000819050919050565b600061243c6124376124328461175d565b612417565b61175d565b9050919050565b6000819050919050565b61245683612421565b61246a61246282612443565b8484546123c5565b825550505050565b600090565b61247f612472565b61248a81848461244d565b505050565b5b818110156124ae576124a3600082612477565b600181019050612490565b5050565b601f8211156124f3576124c481612393565b6124cd846123a8565b810160208510156124dc578190505b6124f06124e8856123a8565b83018261248f565b50505b505050565b600082821c905092915050565b6000612516600019846008026124f8565b1980831691505092915050565b600061252f8383612505565b9150826002028217905092915050565b61254983836122f9565b67ffffffffffffffff81111561256257612561612304565b5b61256c8254612362565b6125778282856124b2565b6000601f8311600181146125a65760008415612594578287013590505b61259e8582612523565b865550612606565b601f1984166125b486612393565b60005b828110156125dc578489013582556001820191506020850194506020810190506125b7565b868310156125f957848901356125f5601f891682612505565b8355505b6001600288020188555050505b50505050505050565b600061261a8261175d565b91507fffffffffffffffffffffffffffffffffffffffffffffffffffffffffffffffff820361264c5761264b611eee565b5b600182019050919050565b7f496e76616c696420737461746500000000000000000000000000000000000000600082015250565b600061268d600d83611b57565b915061269882612657565b602082019050919050565b600060208201905081810360008301526126bc81612680565b9050919050565b7f41756374696f6e207374696c6c2072756e6e696e670000000000000000000000600082015250565b60006126f9601583611b57565b9150612704826126c3565b602082019050919050565b60006020820190508181036000830152612728816126ec565b9050919050565b6000819050919050565b600061275461274f61274a8461272f565b612417565b61175d565b9050919050565b61276481612739565b82525050565b600060408201905061277f600083018561212a565b61278c602083018461275b565b9392505050565b7f41756374696f6e20657869737473000000000000000000000000000000000000600082015250565b60006127c9600e83611b57565b91506127d482612793565b602082019050919050565b600060208201905081810360008301526127f8816127bc565b9050919050565b7f496e76616c6964206475726174696f6e00000000000000000000000000000000600082015250565b6000612835601083611b57565b9150612840826127ff565b602082019050919050565b6000602082019050818103600083015261286481612828565b905091905056fea2646970667358221220bcb5f02d87c32e481b4dd1d0e8daf5814b36177ef4eaf23f7fe90454eb16f0c664736f6c634300081c0033",
  "linkReferences": {},
  "deployedLinkReferences": {}
}