{
  "_format": "hh-sol-artifact-1",
  "contractName": "VaultAuction",
  "sourceName": "contracts/VaultAuction.sol",
  "abi": [
    {
      "inputs": [],
      "name": "ReentrancyGuardReentrantCall",
      "type": "error"
    },
    {
      "anonymous": false,
      "inputs": [
        {
          "indexed": true,
          "internalType": "uint256",
          "name": "vaultId",
          "type": "uint256"
        }
      ],
      "name": "AuctionCancelled",
      "type": "event"
    },
    {
      "anonymous": false,
      "inputs": [
        {
          "indexed": true,
          "internalType": "uint256",
          "name": "vaultId",
          "type": "uint256"
        },
        {
          "indexed": false,
          "internalType": "uint256",
          "name": "startPrice",
          "type": "uint256"
        }
      ],
      "name": "AuctionCreated",
      "type": "event"
    },
    {
      "anonymous": false,
      "inputs": [
        {
          "indexed": true,
          "internalType": "uint256",
          "name": "vaultId",
          "type": "uint256"
        },
        {
          "indexed": false,
          "internalType": "address",
          "name": "winner",
          "type": "address"
        },
        {
          "indexed": false,
          "internalType": "uint256",
          "name": "finalPrice",
          "type": "uint256"
        }
      ],
      "name": "AuctionEnded",
      "type": "event"
    },
    {
      "anonymous": false,
      "inputs": [
        {
          "indexed": true,
          "internalType": "uint256",
          "name": "vaultId",
          "type": "uint256"
        },
        {
          "indexed": false,
          "internalType": "uint256",
          "name": "startTime",
          "type": "uint256"
        },
        {
          "indexed": false,
          "internalType": "uint256",
          "name": "endTime",
          "type": "uint256"
        }
      ],
      "name": "AuctionStarted",
      "type": "event"
    },
    {
      "anonymous": false,
      "inputs": [
        {
          "indexed": true,
          "internalType": "uint256",
          "name": "vaultId",
          "type": "uint256"
        },
        {
          "indexed": false,
          "internalType": "address",
          "name": "bidder",
          "type": "address"
        },
        {
          "indexed": false,
          "internalType": "uint256",
          "name": "amount",
          "type": "uint256"
        }
      ],
      "name": "BidPlaced",
      "type": "event"
    },
    {
      "anonymous": false,
      "inputs": [
        {
          "indexed": true,
          "internalType": "uint256",
          "name": "vaultId",
          "type": "uint256"
        }
      ],
      "name": "VaultCancelled",
      "type": "event"
    },
    {
      "anonymous": false,
      "inputs": [
        {
          "indexed": true,
          "internalType": "uint256",
          "name": "vaultId",
          "type": "uint256"
        },
        {
          "indexed": true,
          "internalType": "address",
          "name": "seller",
          "type": "address"
        }
      ],
      "name": "VaultCreated",
      "type": "event"
    },
    {
      "inputs": [
        {
          "internalType": "uint256",
          "name": "",
          "type": "uint256"
        }
      ],
      "name": "auctionIds",
      "outputs": [
        {
          "internalType": "uint256",
          "name": "",
          "type": "uint256"
        }
      ],
      "stateMutability": "view",
      "type": "function"
    },
    {
      "inputs": [
        {
          "internalType": "uint256",
          "name": "vaultId",
          "type": "uint256"
        }
      ],
      "name": "bid",
      "outputs": [],
      "stateMutability": "payable",
      "type": "function"
    },
    {
      "inputs": [
        {
          "internalType": "uint256",
          "name": "vaultId",
          "type": "uint256"
        }
      ],
      "name": "cancelAuction",
      "outputs": [],
      "stateMutability": "nonpayable",
      "type": "function"
    },
    {
      "inputs": [
        {
          "internalType": "uint256",
          "name": "vaultId",
          "type": "uint256"
        }
      ],
      "name": "cancelVault",
      "outputs": [],
      "stateMutability": "nonpayable",
      "type": "function"
    },
    {
      "inputs": [
        {
          "internalType": "uint256",
          "name": "vaultId",
          "type": "uint256"
        },
        {
          "internalType": "uint256",
          "name": "startPrice",
          "type": "uint256"
        },
        {
          "internalType": "uint256",
          "name": "auctionDuration",
          "type": "uint256"
        }
      ],
      "name": "createAuction",
      "outputs": [],
      "stateMutability": "nonpayable",
      "type": "function"
    },
    {
      "inputs": [
        {
          "internalType": "address[]",
          "name": "nftAddresses",
          "type": "address[]"
        },
        {
          "internalType": "uint256[]",
          "name": "tokenIds",
          "type": "uint256[]"
        },
        {
          "internalType": "string",
          "name": "name",
          "type": "string"
        },
        {
          "internalType": "string",
          "name": "description",
          "type": "string"
        }
      ],
      "name": "createVault",
      "outputs": [],
      "stateMutability": "nonpayable",
      "type": "function"
    },
    {
      "inputs": [
        {
          "internalType": "uint256",
          "name": "vaultId",
          "type": "uint256"
        }
      ],
      "name": "endAuction",
      "outputs": [],
      "stateMutability": "nonpayable",
      "type": "function"
    },
    {
      "inputs": [],
      "name": "getAllAuctions",
      "outputs": [
        {
          "internalType": "uint256[]",
          "name": "",
          "type": "uint256[]"
        }
      ],
      "stateMutability": "view",
      "type": "function"
    },
    {
      "inputs": [
        {
          "internalType": "uint256",
          "name": "vaultId",
          "type": "uint256"
        }
      ],
      "name": "getAuction",
      "outputs": [
        {
          "components": [
            {
              "internalType": "address",
              "name": "seller",
              "type": "address"
            },
            {
              "internalType": "uint256",
              "name": "currentBid",
              "type": "uint256"
            },
            {
              "internalType": "address",
              "name": "highestBidder",
              "type": "address"
            },
            {
              "internalType": "uint256",
              "name": "startTime",
              "type": "uint256"
            },
            {
              "internalType": "uint256",
              "name": "lastBidTime",
              "type": "uint256"
            },
            {
              "internalType": "uint256",
              "name": "bidWindow",
              "type": "uint256"
            },
            {
              "internalType": "uint256",
              "name": "auctionDuration",
              "type": "uint256"
            },
            {
              "internalType": "uint256",
              "name": "endTime",
              "type": "uint256"
            },
            {
              "internalType": "bool",
              "name": "active",
              "type": "bool"
            },
            {
              "internalType": "bool",
              "name": "ended",
              "type": "bool"
            },
            {
              "internalType": "uint256",
              "name": "startPrice",
              "type": "uint256"
            }
          ],
          "internalType": "struct VaultAuction.Auction",
          "name": "",
          "type": "tuple"
        }
      ],
      "stateMutability": "view",
      "type": "function"
    },
    {
      "inputs": [
        {
          "internalType": "uint256",
          "name": "vaultId",
          "type": "uint256"
        }
      ],
      "name": "getAuctionCard",
      "outputs": [
        {
          "internalType": "string",
          "name": "name",
          "type": "string"
        },
        {
          "internalType": "string",
          "name": "description",
          "type": "string"
        },
        {
          "internalType": "bool",
          "name": "isLive",
          "type": "bool"
        },
        {
          "internalType": "bool",
          "name": "isEnded",
          "type": "bool"
        },
        {
          "internalType": "uint256",
          "name": "timeRemaining",
          "type": "uint256"
        },
        {
          "internalType": "uint256",
          "name": "minimumPrice",
          "type": "uint256"
        }
      ],
      "stateMutability": "view",
      "type": "function"
    },
    {
      "inputs": [
        {
          "internalType": "uint256",
          "name": "vaultId",
          "type": "uint256"
        }
      ],
      "name": "getAuctionTiming",
      "outputs": [
        {
          "internalType": "uint256",
          "name": "lastBidTime",
          "type": "uint256"
        },
        {
          "internalType": "uint256",
          "name": "bidWindow",
          "type": "uint256"
        },
        {
          "internalType": "uint256",
          "name": "endTime",
          "type": "uint256"
        },
        {
          "internalType": "bool",
          "name": "active",
          "type": "bool"
        },
        {
          "internalType": "bool",
          "name": "ended",
          "type": "bool"
        }
      ],
      "stateMutability": "view",
      "type": "function"
    },
    {
      "inputs": [
        {
          "internalType": "uint256",
          "name": "vaultId",
          "type": "uint256"
        }
      ],
      "name": "getVaultWithAuction",
      "outputs": [
        {
          "internalType": "string",
          "name": "name",
          "type": "string"
        },
        {
          "internalType": "string",
          "name": "description",
          "type": "string"
        },
        {
          "components": [
            {
              "internalType": "address",
              "name": "nftAddress",
              "type": "address"
            },
            {
              "internalType": "uint256",
              "name": "tokenId",
              "type": "uint256"
            }
          ],
          "internalType": "struct VaultAuction.NFTItem[]",
          "name": "nfts",
          "type": "tuple[]"
        },
        {
          "internalType": "address",
          "name": "seller",
          "type": "address"
        },
        {
          "internalType": "uint256",
          "name": "currentBid",
          "type": "uint256"
        },
        {
          "internalType": "address",
          "name": "highestBidder",
          "type": "address"
        },
        {
          "internalType": "uint256",
          "name": "lastBidTime",
          "type": "uint256"
        },
        {
          "internalType": "bool",
          "name": "active",
          "type": "bool"
        },
        {
          "internalType": "bool",
          "name": "ended",
          "type": "bool"
        },
        {
          "internalType": "uint256",
          "name": "startPrice",
          "type": "uint256"
        }
      ],
      "stateMutability": "view",
      "type": "function"
    },
    {
      "inputs": [
        {
          "internalType": "uint256",
          "name": "vaultId",
          "type": "uint256"
        },
        {
          "internalType": "address",
          "name": "user",
          "type": "address"
        }
      ],
      "name": "isVaultSeller",
      "outputs": [
        {
          "internalType": "bool",
          "name": "",
          "type": "bool"
        }
      ],
      "stateMutability": "view",
      "type": "function"
    },
    {
      "inputs": [
        {
          "internalType": "uint256",
          "name": "vaultId",
          "type": "uint256"
        }
      ],
      "name": "startAuction",
      "outputs": [],
      "stateMutability": "nonpayable",
      "type": "function"
    },
    {
      "inputs": [],
      "name": "vaultCount",
      "outputs": [
        {
          "internalType": "uint256",
          "name": "",
          "type": "uint256"
        }
      ],
      "stateMutability": "view",
      "type": "function"
    },
    {
      "inputs": [
        {
          "internalType": "uint256",
          "name": "",
          "type": "uint256"
        }
      ],
      "name": "vaults",
      "outputs": [
        {
          "components": [
            {
              "internalType": "address",
              "name": "seller",
              "type": "address"
            },
            {
              "internalType": "uint256",
              "name": "currentBid",
              "type": "uint256"
            },
            {
              "internalType": "address",
              "name": "highestBidder",
              "type": "address"
            },
            {
              "internalType": "uint256",
              "name": "startTime",
              "type": "uint256"
            },
            {
              "internalType": "uint256",
              "name": "lastBidTime",
              "type": "uint256"
            },
            {
              "internalType": "uint256",
              "name": "bidWindow",
              "type": "uint256"
            },
            {
              "internalType": "uint256",
              "name": "auctionDuration",
              "type": "uint256"
            },
            {
              "internalType": "uint256",
              "name": "endTime",
              "type": "uint256"
            },
            {
              "internalType": "bool",
              "name": "active",
              "type": "bool"
            },
            {
              "internalType": "bool",
              "name": "ended",
              "type": "bool"
            },
            {
              "internalType": "uint256",
              "name": "startPrice",
              "type": "uint256"
            }
          ],
          "internalType": "struct VaultAuction.Auction",
          "name": "auction",
          "type": "tuple"
        },
        {
          "internalType": "string",
          "name": "name",
          "type": "string"
        },
        {
          "internalType": "string",
          "name": "description",
          "type": "string"
        }
      ],
      "stateMutability": "view",
      "type": "function"
    }
  ],
  "bytecode": "0x6080604052348015600f57600080fd5b5060016000819055506139c7806100276000396000f3fe6080604052600436106100f35760003560e01c80638c64ea4a1161008a578063b9a2de3a11610059578063b9a2de3a14610360578063cbd2bdfd14610389578063cda4beef146103b4578063e998838e146103dd576100f3565b80638c64ea4a1461028c57806396b5a755146102cb578063a7c6a100146102f4578063b033b97c1461031f576100f3565b806363c2c917116100c657806363c2c917146101a357806363e03956146101cc578063705a311f1461020957806378bd79351461024f576100f3565b8063065de74c146100f85780630cc1a407146101215780632a6433be1461014a578063454a2ab314610187575b600080fd5b34801561010457600080fd5b5061011f600480360381019061011a9190612554565b61041f565b005b34801561012d57600080fd5b5061014860048036038101906101439190612554565b61064e565b005b34801561015657600080fd5b50610171600480360381019061016c9190612554565b610a1a565b60405161017e9190612590565b60405180910390f35b6101a1600480360381019061019c9190612554565b610a3e565b005b3480156101af57600080fd5b506101ca60048036038101906101c591906126bc565b610d1e565b005b3480156101d857600080fd5b506101f360048036038101906101ee9190612803565b611056565b604051610200919061285e565b60405180910390f35b34801561021557600080fd5b50610230600480360381019061022b9190612554565b6110c8565b6040516102469a99989796959493929190612a14565b60405180910390f35b34801561025b57600080fd5b5061027660048036038101906102719190612554565b611373565b6040516102839190612bb5565b60405180910390f35b34801561029857600080fd5b506102b360048036038101906102ae9190612554565b6114cc565b6040516102c293929190612bd1565b60405180910390f35b3480156102d757600080fd5b506102f260048036038101906102ed9190612554565b611739565b005b34801561030057600080fd5b506103096119df565b6040516103169190612590565b60405180910390f35b34801561032b57600080fd5b5061034660048036038101906103419190612554565b6119e5565b604051610357959493929190612c19565b60405180910390f35b34801561036c57600080fd5b5061038760048036038101906103829190612554565b611a4d565b005b34801561039557600080fd5b5061039e611f48565b6040516103ab9190612d1b565b60405180910390f35b3480156103c057600080fd5b506103db60048036038101906103d69190612d3d565b611fa0565b005b3480156103e957600080fd5b5061040460048036038101906103ff9190612554565b61219f565b60405161041696959493929190612d90565b60405180910390f35b806002600082815260200190815260200160002060010160000160009054906101000a900473ffffffffffffffffffffffffffffffffffffffff1673ffffffffffffffffffffffffffffffffffffffff163373ffffffffffffffffffffffffffffffffffffffff16146104c7576040517f08c379a00000000000000000000000000000000000000000000000000000000081526004016104be90612e4b565b60405180910390fd5b60006002600084815260200190815260200160002060010190508060080160009054906101000a900460ff1615610533576040517f08c379a000000000000000000000000000000000000000000000000000000000815260040161052a90612eb7565b60405180910390fd5b600081600901541161057a576040517f08c379a000000000000000000000000000000000000000000000000000000000815260040161057190612f23565b60405180910390fd5b42816003018190555042816004018190555080600601544261059c9190612f72565b816007018190555060018160080160006101000a81548160ff02191690831515021790555060008160080160016101000a81548160ff0219169083151502179055506003839080600181540180825580915050600190039060005260206000200160009091909190915055827f44c53be110c6aa83aa83cd02e351ed172359268272ee1b5d31c0fe48db35c6c782600301548360070154604051610641929190612fa6565b60405180910390a2505050565b806002600082815260200190815260200160002060010160000160009054906101000a900473ffffffffffffffffffffffffffffffffffffffff1673ffffffffffffffffffffffffffffffffffffffff163373ffffffffffffffffffffffffffffffffffffffff16146106f6576040517f08c379a00000000000000000000000000000000000000000000000000000000081526004016106ed90612e4b565b60405180910390fd5b600060026000848152602001908152602001600020600101905060006002600085815260200190815260200160002090508160080160009054906101000a900460ff1615610779576040517f08c379a00000000000000000000000000000000000000000000000000000000081526004016107709061301b565b60405180910390fd5b8160080160019054906101000a900460ff16156107cb576040517f08c379a00000000000000000000000000000000000000000000000000000000081526004016107c290613087565b60405180910390fd5b60005b81600001805490508110156108eb578160000181815481106107f3576107f26130a7565b5b906000526020600020906002020160000160009054906101000a900473ffffffffffffffffffffffffffffffffffffffff1673ffffffffffffffffffffffffffffffffffffffff166323b872dd308560000160009054906101000a900473ffffffffffffffffffffffffffffffffffffffff1685600001858154811061087c5761087b6130a7565b5b9060005260206000209060020201600101546040518463ffffffff1660e01b81526004016108ac939291906130d6565b600060405180830381600087803b1580156108c657600080fd5b505af11580156108da573d6000803e3d6000fd5b5050505080806001019150506107ce565b50600260008581526020019081526020016000206000808201600061091091906123c3565b60018201600080820160006101000a81549073ffffffffffffffffffffffffffffffffffffffff021916905560018201600090556002820160006101000a81549073ffffffffffffffffffffffffffffffffffffffff0219169055600382016000905560048201600090556005820160009055600682016000905560078201600090556008820160006101000a81549060ff02191690556008820160016101000a81549060ff021916905560098201600090555050600b820160006109d591906123e7565b600c820160006109e591906123e7565b5050837f79142c75c3043943496c0c003aa076e8da7ed0f01f76c6b198ae5159b742c3f460405160405180910390a250505050565b60038181548110610a2a57600080fd5b906000526020600020016000915090505481565b610a46612373565b60006002600083815260200190815260200160002060010190508060080160009054906101000a900460ff168015610a8d57508060080160019054906101000a900460ff16155b610acc576040517f08c379a0000000000000000000000000000000000000000000000000000000008152600401610ac390613159565b60405180910390fd5b8060070154421115610b13576040517f08c379a0000000000000000000000000000000000000000000000000000000008152600401610b0a906131c5565b60405180910390fd5b80600501548160040154610b279190612f72565b421115610b69576040517f08c379a0000000000000000000000000000000000000000000000000000000008152600401610b6090613231565b60405180910390fd5b60018160010154610b7a9190612f72565b3414610bbb576040517f08c379a0000000000000000000000000000000000000000000000000000000008152600401610bb29061329d565b60405180910390fd5b600073ffffffffffffffffffffffffffffffffffffffff168160020160009054906101000a900473ffffffffffffffffffffffffffffffffffffffff1673ffffffffffffffffffffffffffffffffffffffff1614610c83578060020160009054906101000a900473ffffffffffffffffffffffffffffffffffffffff1673ffffffffffffffffffffffffffffffffffffffff166108fc82600101549081150290604051600060405180830381858888f19350505050158015610c81573d6000803e3d6000fd5b505b348160010181905550338160020160006101000a81548173ffffffffffffffffffffffffffffffffffffffff021916908373ffffffffffffffffffffffffffffffffffffffff160217905550428160040181905550817f0e54eff26401bf69b81b26f60bd85ef47f5d85275c1d268d84f68d6897431c473334604051610d0a9291906132bd565b60405180910390a250610d1b6123b9565b50565b858590508888905014610d66576040517f08c379a0000000000000000000000000000000000000000000000000000000008152600401610d5d90613332565b60405180910390fd5b60008888905011610dac576040517f08c379a0000000000000000000000000000000000000000000000000000000008152600401610da39061339e565b60405180910390fd5b60006001549050600060026000838152602001908152602001600020905060005b8a8a9050811015610f7f578a8a82818110610deb57610dea6130a7565b5b9050602002016020810190610e0091906133be565b73ffffffffffffffffffffffffffffffffffffffff166323b872dd33308c8c86818110610e3057610e2f6130a7565b5b905060200201356040518463ffffffff1660e01b8152600401610e55939291906130d6565b600060405180830381600087803b158015610e6f57600080fd5b505af1158015610e83573d6000803e3d6000fd5b505050508160000160405180604001604052808d8d85818110610ea957610ea86130a7565b5b9050602002016020810190610ebe91906133be565b73ffffffffffffffffffffffffffffffffffffffff1681526020018b8b85818110610eec57610eeb6130a7565b5b90506020020135815250908060018154018082558091505060019003906000526020600020906002020160009091909190915060008201518160000160006101000a81548173ffffffffffffffffffffffffffffffffffffffff021916908373ffffffffffffffffffffffffffffffffffffffff1602179055506020820151816001015550508080600101915050610dcd565b50338160010160000160006101000a81548173ffffffffffffffffffffffffffffffffffffffff021916908373ffffffffffffffffffffffffffffffffffffffff160217905550858582600b019182610fd9929190613631565b50838382600c019182610fed929190613631565b506001600081548092919061100190613701565b91905055503373ffffffffffffffffffffffffffffffffffffffff16827fbf3e9c93de94306b70ac5b9411edf475545815333bf651b894b9eada6482c59460405160405180910390a350505050505050505050565b60008173ffffffffffffffffffffffffffffffffffffffff166002600085815260200190815260200160002060010160000160009054906101000a900473ffffffffffffffffffffffffffffffffffffffff1673ffffffffffffffffffffffffffffffffffffffff1614905092915050565b6060806060600080600080600080600080600260008d81526020019081526020016000209050600081600101905081600b0182600c01836000018360000160009054906101000a900473ffffffffffffffffffffffffffffffffffffffff1684600101548560020160009054906101000a900473ffffffffffffffffffffffffffffffffffffffff1686600401548760080160009054906101000a900460ff168860080160019054906101000a900460ff16896009015489805461118b90613454565b80601f01602080910402602001604051908101604052809291908181526020018280546111b790613454565b80156112045780601f106111d957610100808354040283529160200191611204565b820191906000526020600020905b8154815290600101906020018083116111e757829003601f168201915b5050505050995088805461121790613454565b80601f016020809104026020016040519081016040528092919081815260200182805461124390613454565b80156112905780601f1061126557610100808354040283529160200191611290565b820191906000526020600020905b81548152906001019060200180831161127357829003601f168201915b5050505050985087805480602002602001604051908101604052809291908181526020016000905b8282101561134a57838290600052602060002090600202016040518060400160405290816000820160009054906101000a900473ffffffffffffffffffffffffffffffffffffffff1673ffffffffffffffffffffffffffffffffffffffff1673ffffffffffffffffffffffffffffffffffffffff168152602001600182015481525050815260200190600101906112b8565b5050505097509b509b509b509b509b509b509b509b509b509b5050509193959799509193959799565b61137b612427565b60026000838152602001908152602001600020600101604051806101600160405290816000820160009054906101000a900473ffffffffffffffffffffffffffffffffffffffff1673ffffffffffffffffffffffffffffffffffffffff1673ffffffffffffffffffffffffffffffffffffffff168152602001600182015481526020016002820160009054906101000a900473ffffffffffffffffffffffffffffffffffffffff1673ffffffffffffffffffffffffffffffffffffffff1673ffffffffffffffffffffffffffffffffffffffff16815260200160038201548152602001600482015481526020016005820154815260200160068201548152602001600782015481526020016008820160009054906101000a900460ff161515151581526020016008820160019054906101000a900460ff161515151581526020016009820154815250509050919050565b600260205280600052604060002060009150905080600101604051806101600160405290816000820160009054906101000a900473ffffffffffffffffffffffffffffffffffffffff1673ffffffffffffffffffffffffffffffffffffffff1673ffffffffffffffffffffffffffffffffffffffff168152602001600182015481526020016002820160009054906101000a900473ffffffffffffffffffffffffffffffffffffffff1673ffffffffffffffffffffffffffffffffffffffff1673ffffffffffffffffffffffffffffffffffffffff16815260200160038201548152602001600482015481526020016005820154815260200160068201548152602001600782015481526020016008820160009054906101000a900460ff161515151581526020016008820160019054906101000a900460ff161515151581526020016009820154815250509080600b01805461162890613454565b80601f016020809104026020016040519081016040528092919081815260200182805461165490613454565b80156116a15780601f10611676576101008083540402835291602001916116a1565b820191906000526020600020905b81548152906001019060200180831161168457829003601f168201915b50505050509080600c0180546116b690613454565b80601f01602080910402602001604051908101604052809291908181526020018280546116e290613454565b801561172f5780601f106117045761010080835404028352916020019161172f565b820191906000526020600020905b81548152906001019060200180831161171257829003601f168201915b5050505050905083565b806002600082815260200190815260200160002060010160000160009054906101000a900473ffffffffffffffffffffffffffffffffffffffff1673ffffffffffffffffffffffffffffffffffffffff163373ffffffffffffffffffffffffffffffffffffffff16146117e1576040517f08c379a00000000000000000000000000000000000000000000000000000000081526004016117d890612e4b565b60405180910390fd5b60006002600084815260200190815260200160002060010190508060080160009054906101000a900460ff161561184d576040517f08c379a00000000000000000000000000000000000000000000000000000000081526004016118449061301b565b60405180910390fd5b8060080160019054906101000a900460ff161561189f576040517f08c379a000000000000000000000000000000000000000000000000000000000815260040161189690613087565b60405180910390fd5b60008160090154116118e6576040517f08c379a00000000000000000000000000000000000000000000000000000000081526004016118dd90612f23565b60405180910390fd5b60026000848152602001908152602001600020600101600080820160006101000a81549073ffffffffffffffffffffffffffffffffffffffff021916905560018201600090556002820160006101000a81549073ffffffffffffffffffffffffffffffffffffffff0219169055600382016000905560048201600090556005820160009055600682016000905560078201600090556008820160006101000a81549060ff02191690556008820160016101000a81549060ff021916905560098201600090555050827f2809c7e17bf978fbc7194c0a694b638c4215e9140cacc6c38ca36010b45697df60405160405180910390a2505050565b60015481565b6000806000806000806002600088815260200190815260200160002060010190508060040154816005015482600701548360080160009054906101000a900460ff168460080160019054906101000a900460ff16955095509550955095505091939590929450565b611a55612373565b600060026000838152602001908152602001600020600101905060006002600084815260200190815260200160002090508160080160009054906101000a900460ff168015611ab357508160080160019054906101000a900460ff16155b611af2576040517f08c379a0000000000000000000000000000000000000000000000000000000008152600401611ae990613795565b60405180910390fd5b8160070154421180611b16575081600501548260040154611b139190612f72565b42115b611b55576040517f08c379a0000000000000000000000000000000000000000000000000000000008152600401611b4c90613801565b60405180910390fd5b60008260080160006101000a81548160ff02191690831515021790555060018260080160016101000a81548160ff021916908315150217905550600073ffffffffffffffffffffffffffffffffffffffff168260020160009054906101000a900473ffffffffffffffffffffffffffffffffffffffff1673ffffffffffffffffffffffffffffffffffffffff1614611dde5760005b8160000180549050811015611d0757816000018181548110611c0f57611c0e6130a7565b5b906000526020600020906002020160000160009054906101000a900473ffffffffffffffffffffffffffffffffffffffff1673ffffffffffffffffffffffffffffffffffffffff166323b872dd308560020160009054906101000a900473ffffffffffffffffffffffffffffffffffffffff16856000018581548110611c9857611c976130a7565b5b9060005260206000209060020201600101546040518463ffffffff1660e01b8152600401611cc8939291906130d6565b600060405180830381600087803b158015611ce257600080fd5b505af1158015611cf6573d6000803e3d6000fd5b505050508080600101915050611bea565b508160000160009054906101000a900473ffffffffffffffffffffffffffffffffffffffff1673ffffffffffffffffffffffffffffffffffffffff166108fc83600101549081150290604051600060405180830381858888f19350505050158015611d76573d6000803e3d6000fd5b50827fd2aa34a4fdbbc6dff6a3e56f46e0f3ae2a31d7785ff3487aa5c95c642acea5018360020160009054906101000a900473ffffffffffffffffffffffffffffffffffffffff168460010154604051611dd19291906132bd565b60405180910390a2611f3b565b60005b8160000180549050811015611efe57816000018181548110611e0657611e056130a7565b5b906000526020600020906002020160000160009054906101000a900473ffffffffffffffffffffffffffffffffffffffff1673ffffffffffffffffffffffffffffffffffffffff166323b872dd308560000160009054906101000a900473ffffffffffffffffffffffffffffffffffffffff16856000018581548110611e8f57611e8e6130a7565b5b9060005260206000209060020201600101546040518463ffffffff1660e01b8152600401611ebf939291906130d6565b600060405180830381600087803b158015611ed957600080fd5b505af1158015611eed573d6000803e3d6000fd5b505050508080600101915050611de1565b50827fd2aa34a4fdbbc6dff6a3e56f46e0f3ae2a31d7785ff3487aa5c95c642acea501600080604051611f3292919061385c565b60405180910390a25b5050611f456123b9565b50565b60606003805480602002602001604051908101604052809291908181526020018280548015611f9657602002820191906000526020600020905b815481526020019060010190808311611f82575b5050505050905090565b826002600082815260200190815260200160002060010160000160009054906101000a900473ffffffffffffffffffffffffffffffffffffffff1673ffffffffffffffffffffffffffffffffffffffff163373ffffffffffffffffffffffffffffffffffffffff1614612048576040517f08c379a000000000000000000000000000000000000000000000000000000000815260040161203f90612e4b565b60405180910390fd5b60006002600086815260200190815260200160002060010190508060080160009054906101000a900460ff1615801561209057508060080160019054906101000a900460ff16155b6120cf576040517f08c379a00000000000000000000000000000000000000000000000000000000081526004016120c6906138d1565b60405180910390fd5b60008311612112576040517f08c379a00000000000000000000000000000000000000000000000000000000081526004016121099061393d565b60405180910390fd5b838160090181905550838160010181905550601e81600501819055508281600601819055506003859080600181540180825580915050600190039060005260206000200160009091909190915055847fe00a2da3a0f34a566402a244ab7ec63f8ab7472591cb18edf3269aa00461a410856040516121909190612590565b60405180910390a25050505050565b6060806000806000806000600260008981526020019081526020016000209050600081600101905060008160080160019054906101000a900460ff16156121e95760009050612211565b816007015442106121fd5760009050612210565b42826007015461220d919061395d565b90505b5b82600b0183600c018360080160009054906101000a900460ff168460080160019054906101000a900460ff1684866009015485805461224f90613454565b80601f016020809104026020016040519081016040528092919081815260200182805461227b90613454565b80156122c85780601f1061229d576101008083540402835291602001916122c8565b820191906000526020600020905b8154815290600101906020018083116122ab57829003601f168201915b505050505095508480546122db90613454565b80601f016020809104026020016040519081016040528092919081815260200182805461230790613454565b80156123545780601f1061232957610100808354040283529160200191612354565b820191906000526020600020905b81548152906001019060200180831161233757829003601f168201915b5050505050945098509850985098509850985050505091939550919395565b6002600054036123af576040517f3ee5aeb500000000000000000000000000000000000000000000000000000000815260040160405180910390fd5b6002600081905550565b6001600081905550565b50805460008255600202906000526020600020908101906123e491906124b1565b50565b5080546123f390613454565b6000825580601f106124055750612424565b601f01602090049060005260206000209081019061242391906124f7565b5b50565b604051806101600160405280600073ffffffffffffffffffffffffffffffffffffffff16815260200160008152602001600073ffffffffffffffffffffffffffffffffffffffff1681526020016000815260200160008152602001600081526020016000815260200160008152602001600015158152602001600015158152602001600081525090565b5b808211156124f357600080820160006101000a81549073ffffffffffffffffffffffffffffffffffffffff02191690556001820160009055506002016124b2565b5090565b5b808211156125105760008160009055506001016124f8565b5090565b600080fd5b600080fd5b6000819050919050565b6125318161251e565b811461253c57600080fd5b50565b60008135905061254e81612528565b92915050565b60006020828403121561256a57612569612514565b5b60006125788482850161253f565b91505092915050565b61258a8161251e565b82525050565b60006020820190506125a56000830184612581565b92915050565b600080fd5b600080fd5b600080fd5b60008083601f8401126125d0576125cf6125ab565b5b8235905067ffffffffffffffff8111156125ed576125ec6125b0565b5b602083019150836020820283011115612609576126086125b5565b5b9250929050565b60008083601f840112612626576126256125ab565b5b8235905067ffffffffffffffff811115612643576126426125b0565b5b60208301915083602082028301111561265f5761265e6125b5565b5b9250929050565b60008083601f84011261267c5761267b6125ab565b5b8235905067ffffffffffffffff811115612699576126986125b0565b5b6020830191508360018202830111156126b5576126b46125b5565b5b9250929050565b6000806000806000806000806080898b0312156126dc576126db612514565b5b600089013567ffffffffffffffff8111156126fa576126f9612519565b5b6127068b828c016125ba565b9850985050602089013567ffffffffffffffff81111561272957612728612519565b5b6127358b828c01612610565b9650965050604089013567ffffffffffffffff81111561275857612757612519565b5b6127648b828c01612666565b9450945050606089013567ffffffffffffffff81111561278757612786612519565b5b6127938b828c01612666565b92509250509295985092959890939650565b600073ffffffffffffffffffffffffffffffffffffffff82169050919050565b60006127d0826127a5565b9050919050565b6127e0816127c5565b81146127eb57600080fd5b50565b6000813590506127fd816127d7565b92915050565b6000806040838503121561281a57612819612514565b5b60006128288582860161253f565b9250506020612839858286016127ee565b9150509250929050565b60008115159050919050565b61285881612843565b82525050565b6000602082019050612873600083018461284f565b92915050565b600081519050919050565b600082825260208201905092915050565b60005b838110156128b3578082015181840152602081019050612898565b60008484015250505050565b6000601f19601f8301169050919050565b60006128db82612879565b6128e58185612884565b93506128f5818560208601612895565b6128fe816128bf565b840191505092915050565b600081519050919050565b600082825260208201905092915050565b6000819050602082019050919050565b61293e816127c5565b82525050565b61294d8161251e565b82525050565b6040820160008201516129696000850182612935565b50602082015161297c6020850182612944565b50505050565b600061298e8383612953565b60408301905092915050565b6000602082019050919050565b60006129b282612909565b6129bc8185612914565b93506129c783612925565b8060005b838110156129f85781516129df8882612982565b97506129ea8361299a565b9250506001810190506129cb565b5085935050505092915050565b612a0e816127c5565b82525050565b6000610140820190508181036000830152612a2f818d6128d0565b90508181036020830152612a43818c6128d0565b90508181036040830152612a57818b6129a7565b9050612a66606083018a612a05565b612a736080830189612581565b612a8060a0830188612a05565b612a8d60c0830187612581565b612a9a60e083018661284f565b612aa861010083018561284f565b612ab6610120830184612581565b9b9a5050505050505050505050565b612ace81612843565b82525050565b61016082016000820151612aeb6000850182612935565b506020820151612afe6020850182612944565b506040820151612b116040850182612935565b506060820151612b246060850182612944565b506080820151612b376080850182612944565b5060a0820151612b4a60a0850182612944565b5060c0820151612b5d60c0850182612944565b5060e0820151612b7060e0850182612944565b50610100820151612b85610100850182612ac5565b50610120820151612b9a610120850182612ac5565b50610140820151612baf610140850182612944565b50505050565b600061016082019050612bcb6000830184612ad4565b92915050565b60006101a082019050612be76000830186612ad4565b818103610160830152612bfa81856128d0565b9050818103610180830152612c0f81846128d0565b9050949350505050565b600060a082019050612c2e6000830188612581565b612c3b6020830187612581565b612c486040830186612581565b612c55606083018561284f565b612c62608083018461284f565b9695505050505050565b600081519050919050565b600082825260208201905092915050565b6000819050602082019050919050565b6000612ca48383612944565b60208301905092915050565b6000602082019050919050565b6000612cc882612c6c565b612cd28185612c77565b9350612cdd83612c88565b8060005b83811015612d0e578151612cf58882612c98565b9750612d0083612cb0565b925050600181019050612ce1565b5085935050505092915050565b60006020820190508181036000830152612d358184612cbd565b905092915050565b600080600060608486031215612d5657612d55612514565b5b6000612d648682870161253f565b9350506020612d758682870161253f565b9250506040612d868682870161253f565b9150509250925092565b600060c0820190508181036000830152612daa81896128d0565b90508181036020830152612dbe81886128d0565b9050612dcd604083018761284f565b612dda606083018661284f565b612de76080830185612581565b612df460a0830184612581565b979650505050505050565b7f4e6f74207661756c742073656c6c657200000000000000000000000000000000600082015250565b6000612e35601083612884565b9150612e4082612dff565b602082019050919050565b60006020820190508181036000830152612e6481612e28565b9050919050565b7f416c726561647920616374697665000000000000000000000000000000000000600082015250565b6000612ea1600e83612884565b9150612eac82612e6b565b602082019050919050565b60006020820190508181036000830152612ed081612e94565b9050919050565b7f41756374696f6e206e6f74206372656174656400000000000000000000000000600082015250565b6000612f0d601383612884565b9150612f1882612ed7565b602082019050919050565b60006020820190508181036000830152612f3c81612f00565b9050919050565b7f4e487b7100000000000000000000000000000000000000000000000000000000600052601160045260246000fd5b6000612f7d8261251e565b9150612f888361251e565b9250828201905080821115612fa057612f9f612f43565b5b92915050565b6000604082019050612fbb6000830185612581565b612fc86020830184612581565b9392505050565b7f41756374696f6e20616c72656164792073746172746564000000000000000000600082015250565b6000613005601783612884565b915061301082612fcf565b602082019050919050565b6000602082019050818103600083015261303481612ff8565b9050919050565b7f41756374696f6e20616c726561647920656e6465640000000000000000000000600082015250565b6000613071601583612884565b915061307c8261303b565b602082019050919050565b600060208201905081810360008301526130a081613064565b9050919050565b7f4e487b7100000000000000000000000000000000000000000000000000000000600052603260045260246000fd5b60006060820190506130eb6000830186612a05565b6130f86020830185612a05565b6131056040830184612581565b949350505050565b7f41756374696f6e20696e61637469766500000000000000000000000000000000600082015250565b6000613143601083612884565b915061314e8261310d565b602082019050919050565b6000602082019050818103600083015261317281613136565b9050919050565b7f41756374696f6e206475726174696f6e20656e64656400000000000000000000600082015250565b60006131af601683612884565b91506131ba82613179565b602082019050919050565b600060208201905081810360008301526131de816131a2565b9050919050565b7f4269642077696e646f7720657870697265640000000000000000000000000000600082015250565b600061321b601283612884565b9150613226826131e5565b602082019050919050565b6000602082019050818103600083015261324a8161320e565b9050919050565b7f426964206d757374206265202b31000000000000000000000000000000000000600082015250565b6000613287600e83612884565b915061329282613251565b602082019050919050565b600060208201905081810360008301526132b68161327a565b9050919050565b60006040820190506132d26000830185612a05565b6132df6020830184612581565b9392505050565b7f4c656e677468206d69736d617463680000000000000000000000000000000000600082015250565b600061331c600f83612884565b9150613327826132e6565b602082019050919050565b6000602082019050818103600083015261334b8161330f565b9050919050565b7f456d707479207661756c74000000000000000000000000000000000000000000600082015250565b6000613388600b83612884565b915061339382613352565b602082019050919050565b600060208201905081810360008301526133b78161337b565b9050919050565b6000602082840312156133d4576133d3612514565b5b60006133e2848285016127ee565b91505092915050565b600082905092915050565b7f4e487b7100000000000000000000000000000000000000000000000000000000600052604160045260246000fd5b7f4e487b7100000000000000000000000000000000000000000000000000000000600052602260045260246000fd5b6000600282049050600182168061346c57607f821691505b60208210810361347f5761347e613425565b5b50919050565b60008190508160005260206000209050919050565b60006020601f8301049050919050565b600082821b905092915050565b6000600883026134e77fffffffffffffffffffffffffffffffffffffffffffffffffffffffffffffffff826134aa565b6134f186836134aa565b95508019841693508086168417925050509392505050565b6000819050919050565b600061352e6135296135248461251e565b613509565b61251e565b9050919050565b6000819050919050565b61354883613513565b61355c61355482613535565b8484546134b7565b825550505050565b600090565b613571613564565b61357c81848461353f565b505050565b5b818110156135a057613595600082613569565b600181019050613582565b5050565b601f8211156135e5576135b681613485565b6135bf8461349a565b810160208510156135ce578190505b6135e26135da8561349a565b830182613581565b50505b505050565b600082821c905092915050565b6000613608600019846008026135ea565b1980831691505092915050565b600061362183836135f7565b9150826002028217905092915050565b61363b83836133eb565b67ffffffffffffffff811115613654576136536133f6565b5b61365e8254613454565b6136698282856135a4565b6000601f8311600181146136985760008415613686578287013590505b6136908582613615565b8655506136f8565b601f1984166136a686613485565b60005b828110156136ce578489013582556001820191506020850194506020810190506136a9565b868310156136eb57848901356136e7601f8916826135f7565b8355505b6001600288020188555050505b50505050505050565b600061370c8261251e565b91507fffffffffffffffffffffffffffffffffffffffffffffffffffffffffffffffff820361373e5761373d612f43565b5b600182019050919050565b7f496e76616c696420737461746500000000000000000000000000000000000000600082015250565b600061377f600d83612884565b915061378a82613749565b602082019050919050565b600060208201905081810360008301526137ae81613772565b9050919050565b7f41756374696f6e207374696c6c2072756e6e696e670000000000000000000000600082015250565b60006137eb601583612884565b91506137f6826137b5565b602082019050919050565b6000602082019050818103600083015261381a816137de565b9050919050565b6000819050919050565b600061384661384161383c84613821565b613509565b61251e565b9050919050565b6138568161382b565b82525050565b60006040820190506138716000830185612a05565b61387e602083018461384d565b9392505050565b7f41756374696f6e20657869737473000000000000000000000000000000000000600082015250565b60006138bb600e83612884565b91506138c682613885565b602082019050919050565b600060208201905081810360008301526138ea816138ae565b9050919050565b7f496e76616c6964206475726174696f6e00000000000000000000000000000000600082015250565b6000613927601083612884565b9150613932826138f1565b602082019050919050565b600060208201905081810360008301526139568161391a565b9050919050565b60006139688261251e565b91506139738361251e565b925082820390508181111561398b5761398a612f43565b5b9291505056fea2646970667358221220a1199082689eafa4a4593b8fad85e7ff97f68e23fccc2564af93e450b00fde8f64736f6c634300081c0033",
  "linkReferences": {},
  "deployedLinkReferences": {}
}