{
  "_format": "hh-sol-artifact-1",
  "contractName": "VaultAuction",
  "sourceName": "contracts/VaultAuction.sol",
  "abi": [
    {
      "inputs": [],
      "name": "ReentrancyGuardReentrantCall",
      "type": "error"
    },
    {
      "anonymous": false,
      "inputs": [
        {
          "indexed": true,
          "internalType": "uint256",
          "name": "vaultId",
          "type": "uint256"
        }
      ],
      "name": "AuctionCancelled",
      "type": "event"
    },
    {
      "anonymous": false,
      "inputs": [
        {
          "indexed": true,
          "internalType": "uint256",
          "name": "vaultId",
          "type": "uint256"
        },
        {
          "indexed": false,
          "internalType": "uint256",
          "name": "startPrice",
          "type": "uint256"
        }
      ],
      "name": "AuctionCreated",
      "type": "event"
    },
    {
      "anonymous": false,
      "inputs": [
        {
          "indexed": true,
          "internalType": "uint256",
          "name": "vaultId",
          "type": "uint256"
        },
        {
          "indexed": false,
          "internalType": "address",
          "name": "winner",
          "type": "address"
        },
        {
          "indexed": false,
          "internalType": "uint256",
          "name": "finalPrice",
          "type": "uint256"
        }
      ],
      "name": "AuctionEnded",
      "type": "event"
    },
    {
      "anonymous": false,
      "inputs": [
        {
          "indexed": true,
          "internalType": "uint256",
          "name": "vaultId",
          "type": "uint256"
        },
        {
          "indexed": false,
          "internalType": "uint256",
          "name": "startTime",
          "type": "uint256"
        },
        {
          "indexed": false,
          "internalType": "uint256",
          "name": "endTime",
          "type": "uint256"
        }
      ],
      "name": "AuctionStarted",
      "type": "event"
    },
    {
      "anonymous": false,
      "inputs": [
        {
          "indexed": true,
          "internalType": "uint256",
          "name": "vaultId",
          "type": "uint256"
        },
        {
          "indexed": false,
          "internalType": "address",
          "name": "bidder",
          "type": "address"
        },
        {
          "indexed": false,
          "internalType": "uint256",
          "name": "amount",
          "type": "uint256"
        }
      ],
      "name": "BidPlaced",
      "type": "event"
    },
    {
      "anonymous": false,
      "inputs": [
        {
          "indexed": true,
          "internalType": "uint256",
          "name": "vaultId",
          "type": "uint256"
        }
      ],
      "name": "VaultCancelled",
      "type": "event"
    },
    {
      "anonymous": false,
      "inputs": [
        {
          "indexed": true,
          "internalType": "uint256",
          "name": "vaultId",
          "type": "uint256"
        },
        {
          "indexed": true,
          "internalType": "address",
          "name": "seller",
          "type": "address"
        }
      ],
      "name": "VaultCreated",
      "type": "event"
    },
    {
      "inputs": [
        {
          "internalType": "uint256",
          "name": "",
          "type": "uint256"
        }
      ],
      "name": "auctionIds",
      "outputs": [
        {
          "internalType": "uint256",
          "name": "",
          "type": "uint256"
        }
      ],
      "stateMutability": "view",
      "type": "function"
    },
    {
      "inputs": [
        {
          "internalType": "uint256",
          "name": "vaultId",
          "type": "uint256"
        }
      ],
      "name": "bid",
      "outputs": [],
      "stateMutability": "payable",
      "type": "function"
    },
    {
      "inputs": [
        {
          "internalType": "uint256",
          "name": "vaultId",
          "type": "uint256"
        }
      ],
      "name": "cancelAuction",
      "outputs": [],
      "stateMutability": "nonpayable",
      "type": "function"
    },
    {
      "inputs": [
        {
          "internalType": "uint256",
          "name": "vaultId",
          "type": "uint256"
        }
      ],
      "name": "cancelVault",
      "outputs": [],
      "stateMutability": "nonpayable",
      "type": "function"
    },
    {
      "inputs": [
        {
          "internalType": "uint256",
          "name": "vaultId",
          "type": "uint256"
        },
        {
          "internalType": "uint256",
          "name": "startPrice",
          "type": "uint256"
        },
        {
          "internalType": "uint256",
          "name": "auctionDuration",
          "type": "uint256"
        }
      ],
      "name": "createAuction",
      "outputs": [],
      "stateMutability": "nonpayable",
      "type": "function"
    },
    {
      "inputs": [
        {
          "internalType": "address[]",
          "name": "nftAddresses",
          "type": "address[]"
        },
        {
          "internalType": "uint256[]",
          "name": "tokenIds",
          "type": "uint256[]"
        },
        {
          "internalType": "string",
          "name": "name",
          "type": "string"
        },
        {
          "internalType": "string",
          "name": "description",
          "type": "string"
        }
      ],
      "name": "createVault",
      "outputs": [],
      "stateMutability": "nonpayable",
      "type": "function"
    },
    {
      "inputs": [
        {
          "internalType": "uint256",
          "name": "vaultId",
          "type": "uint256"
        }
      ],
      "name": "endAuction",
      "outputs": [],
      "stateMutability": "nonpayable",
      "type": "function"
    },
    {
      "inputs": [],
      "name": "getAllAuctions",
      "outputs": [
        {
          "internalType": "uint256[]",
          "name": "",
          "type": "uint256[]"
        }
      ],
      "stateMutability": "view",
      "type": "function"
    },
    {
      "inputs": [
        {
          "internalType": "uint256",
          "name": "vaultId",
          "type": "uint256"
        }
      ],
      "name": "getAuction",
      "outputs": [
        {
          "components": [
            {
              "internalType": "address",
              "name": "seller",
              "type": "address"
            },
            {
              "internalType": "uint256",
              "name": "currentBid",
              "type": "uint256"
            },
            {
              "internalType": "address",
              "name": "highestBidder",
              "type": "address"
            },
            {
              "internalType": "uint256",
              "name": "startTime",
              "type": "uint256"
            },
            {
              "internalType": "uint256",
              "name": "lastBidTime",
              "type": "uint256"
            },
            {
              "internalType": "uint256",
              "name": "bidWindow",
              "type": "uint256"
            },
            {
              "internalType": "uint256",
              "name": "auctionDuration",
              "type": "uint256"
            },
            {
              "internalType": "uint256",
              "name": "endTime",
              "type": "uint256"
            },
            {
              "internalType": "bool",
              "name": "active",
              "type": "bool"
            },
            {
              "internalType": "bool",
              "name": "ended",
              "type": "bool"
            },
            {
              "internalType": "uint256",
              "name": "startPrice",
              "type": "uint256"
            }
          ],
          "internalType": "struct VaultAuction.Auction",
          "name": "",
          "type": "tuple"
        }
      ],
      "stateMutability": "view",
      "type": "function"
    },
    {
      "inputs": [
        {
          "internalType": "uint256",
          "name": "vaultId",
          "type": "uint256"
        }
      ],
      "name": "getAuctionTiming",
      "outputs": [
        {
          "internalType": "uint256",
          "name": "lastBidTime",
          "type": "uint256"
        },
        {
          "internalType": "uint256",
          "name": "bidWindow",
          "type": "uint256"
        },
        {
          "internalType": "uint256",
          "name": "endTime",
          "type": "uint256"
        },
        {
          "internalType": "bool",
          "name": "active",
          "type": "bool"
        },
        {
          "internalType": "bool",
          "name": "ended",
          "type": "bool"
        }
      ],
      "stateMutability": "view",
      "type": "function"
    },
    {
      "inputs": [
        {
          "internalType": "uint256",
          "name": "vaultId",
          "type": "uint256"
        }
      ],
      "name": "startAuction",
      "outputs": [],
      "stateMutability": "nonpayable",
      "type": "function"
    },
    {
      "inputs": [],
      "name": "vaultCount",
      "outputs": [
        {
          "internalType": "uint256",
          "name": "",
          "type": "uint256"
        }
      ],
      "stateMutability": "view",
      "type": "function"
    },
    {
      "inputs": [
        {
          "internalType": "uint256",
          "name": "",
          "type": "uint256"
        }
      ],
      "name": "vaults",
      "outputs": [
        {
          "components": [
            {
              "internalType": "address",
              "name": "seller",
              "type": "address"
            },
            {
              "internalType": "uint256",
              "name": "currentBid",
              "type": "uint256"
            },
            {
              "internalType": "address",
              "name": "highestBidder",
              "type": "address"
            },
            {
              "internalType": "uint256",
              "name": "startTime",
              "type": "uint256"
            },
            {
              "internalType": "uint256",
              "name": "lastBidTime",
              "type": "uint256"
            },
            {
              "internalType": "uint256",
              "name": "bidWindow",
              "type": "uint256"
            },
            {
              "internalType": "uint256",
              "name": "auctionDuration",
              "type": "uint256"
            },
            {
              "internalType": "uint256",
              "name": "endTime",
              "type": "uint256"
            },
            {
              "internalType": "bool",
              "name": "active",
              "type": "bool"
            },
            {
              "internalType": "bool",
              "name": "ended",
              "type": "bool"
            },
            {
              "internalType": "uint256",
              "name": "startPrice",
              "type": "uint256"
            }
          ],
          "internalType": "struct VaultAuction.Auction",
          "name": "auction",
          "type": "tuple"
        },
        {
          "internalType": "string",
          "name": "name",
          "type": "string"
        },
        {
          "internalType": "string",
          "name": "description",
          "type": "string"
        }
      ],
      "stateMutability": "view",
      "type": "function"
    }
  ],
  "bytecode": "0x6080604052348015600f57600080fd5b506001600081905550613153806100276000396000f3fe6080604052600436106100c25760003560e01c80638c64ea4a1161007f578063b033b97c11610059578063b033b97c1461026b578063b9a2de3a146102ac578063cbd2bdfd146102d5578063cda4beef14610300576100c2565b80638c64ea4a146101d857806396b5a75514610217578063a7c6a10014610240576100c2565b8063065de74c146100c75780630cc1a407146100f05780632a6433be14610119578063454a2ab31461015657806363c2c9171461017257806378bd79351461019b575b600080fd5b3480156100d357600080fd5b506100ee60048036038101906100e99190611f6d565b610329565b005b3480156100fc57600080fd5b5061011760048036038101906101129190611f6d565b610558565b005b34801561012557600080fd5b50610140600480360381019061013b9190611f6d565b610924565b60405161014d9190611fa9565b60405180910390f35b610170600480360381019061016b9190611f6d565b610948565b005b34801561017e57600080fd5b50610199600480360381019061019491906120d5565b610c28565b005b3480156101a757600080fd5b506101c260048036038101906101bd9190611f6d565b610f60565b6040516101cf919061230a565b60405180910390f35b3480156101e457600080fd5b506101ff60048036038101906101fa9190611f6d565b6110b9565b60405161020e939291906123b6565b60405180910390f35b34801561022357600080fd5b5061023e60048036038101906102399190611f6d565b611326565b005b34801561024c57600080fd5b506102556115cc565b6040516102629190611fa9565b60405180910390f35b34801561027757600080fd5b50610292600480360381019061028d9190611f6d565b6115d2565b6040516102a395949392919061240d565b60405180910390f35b3480156102b857600080fd5b506102d360048036038101906102ce9190611f6d565b61163a565b005b3480156102e157600080fd5b506102ea611b35565b6040516102f7919061250f565b60405180910390f35b34801561030c57600080fd5b5061032760048036038101906103229190612531565b611b8d565b005b806002600082815260200190815260200160002060010160000160009054906101000a900473ffffffffffffffffffffffffffffffffffffffff1673ffffffffffffffffffffffffffffffffffffffff163373ffffffffffffffffffffffffffffffffffffffff16146103d1576040517f08c379a00000000000000000000000000000000000000000000000000000000081526004016103c8906125d0565b60405180910390fd5b60006002600084815260200190815260200160002060010190508060080160009054906101000a900460ff161561043d576040517f08c379a00000000000000000000000000000000000000000000000000000000081526004016104349061263c565b60405180910390fd5b6000816009015411610484576040517f08c379a000000000000000000000000000000000000000000000000000000000815260040161047b906126a8565b60405180910390fd5b4281600301819055504281600401819055508060060154426104a691906126f7565b816007018190555060018160080160006101000a81548160ff02191690831515021790555060008160080160016101000a81548160ff0219169083151502179055506003839080600181540180825580915050600190039060005260206000200160009091909190915055827f44c53be110c6aa83aa83cd02e351ed172359268272ee1b5d31c0fe48db35c6c78260030154836007015460405161054b92919061272b565b60405180910390a2505050565b806002600082815260200190815260200160002060010160000160009054906101000a900473ffffffffffffffffffffffffffffffffffffffff1673ffffffffffffffffffffffffffffffffffffffff163373ffffffffffffffffffffffffffffffffffffffff1614610600576040517f08c379a00000000000000000000000000000000000000000000000000000000081526004016105f7906125d0565b60405180910390fd5b600060026000848152602001908152602001600020600101905060006002600085815260200190815260200160002090508160080160009054906101000a900460ff1615610683576040517f08c379a000000000000000000000000000000000000000000000000000000000815260040161067a906127a0565b60405180910390fd5b8160080160019054906101000a900460ff16156106d5576040517f08c379a00000000000000000000000000000000000000000000000000000000081526004016106cc9061280c565b60405180910390fd5b60005b81600001805490508110156107f5578160000181815481106106fd576106fc61282c565b5b906000526020600020906002020160000160009054906101000a900473ffffffffffffffffffffffffffffffffffffffff1673ffffffffffffffffffffffffffffffffffffffff166323b872dd308560000160009054906101000a900473ffffffffffffffffffffffffffffffffffffffff168560000185815481106107865761078561282c565b5b9060005260206000209060020201600101546040518463ffffffff1660e01b81526004016107b69392919061286a565b600060405180830381600087803b1580156107d057600080fd5b505af11580156107e4573d6000803e3d6000fd5b5050505080806001019150506106d8565b50600260008581526020019081526020016000206000808201600061081a9190611ddc565b60018201600080820160006101000a81549073ffffffffffffffffffffffffffffffffffffffff021916905560018201600090556002820160006101000a81549073ffffffffffffffffffffffffffffffffffffffff0219169055600382016000905560048201600090556005820160009055600682016000905560078201600090556008820160006101000a81549060ff02191690556008820160016101000a81549060ff021916905560098201600090555050600b820160006108df9190611e00565b600c820160006108ef9190611e00565b5050837f79142c75c3043943496c0c003aa076e8da7ed0f01f76c6b198ae5159b742c3f460405160405180910390a250505050565b6003818154811061093457600080fd5b906000526020600020016000915090505481565b610950611d8c565b60006002600083815260200190815260200160002060010190508060080160009054906101000a900460ff16801561099757508060080160019054906101000a900460ff16155b6109d6576040517f08c379a00000000000000000000000000000000000000000000000000000000081526004016109cd906128ed565b60405180910390fd5b8060070154421115610a1d576040517f08c379a0000000000000000000000000000000000000000000000000000000008152600401610a1490612959565b60405180910390fd5b80600501548160040154610a3191906126f7565b421115610a73576040517f08c379a0000000000000000000000000000000000000000000000000000000008152600401610a6a906129c5565b60405180910390fd5b60018160010154610a8491906126f7565b3414610ac5576040517f08c379a0000000000000000000000000000000000000000000000000000000008152600401610abc90612a31565b60405180910390fd5b600073ffffffffffffffffffffffffffffffffffffffff168160020160009054906101000a900473ffffffffffffffffffffffffffffffffffffffff1673ffffffffffffffffffffffffffffffffffffffff1614610b8d578060020160009054906101000a900473ffffffffffffffffffffffffffffffffffffffff1673ffffffffffffffffffffffffffffffffffffffff166108fc82600101549081150290604051600060405180830381858888f19350505050158015610b8b573d6000803e3d6000fd5b505b348160010181905550338160020160006101000a81548173ffffffffffffffffffffffffffffffffffffffff021916908373ffffffffffffffffffffffffffffffffffffffff160217905550428160040181905550817f0e54eff26401bf69b81b26f60bd85ef47f5d85275c1d268d84f68d6897431c473334604051610c14929190612a51565b60405180910390a250610c25611dd2565b50565b858590508888905014610c70576040517f08c379a0000000000000000000000000000000000000000000000000000000008152600401610c6790612ac6565b60405180910390fd5b60008888905011610cb6576040517f08c379a0000000000000000000000000000000000000000000000000000000008152600401610cad90612b32565b60405180910390fd5b60006001549050600060026000838152602001908152602001600020905060005b8a8a9050811015610e89578a8a82818110610cf557610cf461282c565b5b9050602002016020810190610d0a9190612b7e565b73ffffffffffffffffffffffffffffffffffffffff166323b872dd33308c8c86818110610d3a57610d3961282c565b5b905060200201356040518463ffffffff1660e01b8152600401610d5f9392919061286a565b600060405180830381600087803b158015610d7957600080fd5b505af1158015610d8d573d6000803e3d6000fd5b505050508160000160405180604001604052808d8d85818110610db357610db261282c565b5b9050602002016020810190610dc89190612b7e565b73ffffffffffffffffffffffffffffffffffffffff1681526020018b8b85818110610df657610df561282c565b5b90506020020135815250908060018154018082558091505060019003906000526020600020906002020160009091909190915060008201518160000160006101000a81548173ffffffffffffffffffffffffffffffffffffffff021916908373ffffffffffffffffffffffffffffffffffffffff1602179055506020820151816001015550508080600101915050610cd7565b50338160010160000160006101000a81548173ffffffffffffffffffffffffffffffffffffffff021916908373ffffffffffffffffffffffffffffffffffffffff160217905550858582600b019182610ee3929190612df1565b50838382600c019182610ef7929190612df1565b5060016000815480929190610f0b90612ec1565b91905055503373ffffffffffffffffffffffffffffffffffffffff16827fbf3e9c93de94306b70ac5b9411edf475545815333bf651b894b9eada6482c59460405160405180910390a350505050505050505050565b610f68611e40565b60026000838152602001908152602001600020600101604051806101600160405290816000820160009054906101000a900473ffffffffffffffffffffffffffffffffffffffff1673ffffffffffffffffffffffffffffffffffffffff1673ffffffffffffffffffffffffffffffffffffffff168152602001600182015481526020016002820160009054906101000a900473ffffffffffffffffffffffffffffffffffffffff1673ffffffffffffffffffffffffffffffffffffffff1673ffffffffffffffffffffffffffffffffffffffff16815260200160038201548152602001600482015481526020016005820154815260200160068201548152602001600782015481526020016008820160009054906101000a900460ff161515151581526020016008820160019054906101000a900460ff161515151581526020016009820154815250509050919050565b600260205280600052604060002060009150905080600101604051806101600160405290816000820160009054906101000a900473ffffffffffffffffffffffffffffffffffffffff1673ffffffffffffffffffffffffffffffffffffffff1673ffffffffffffffffffffffffffffffffffffffff168152602001600182015481526020016002820160009054906101000a900473ffffffffffffffffffffffffffffffffffffffff1673ffffffffffffffffffffffffffffffffffffffff1673ffffffffffffffffffffffffffffffffffffffff16815260200160038201548152602001600482015481526020016005820154815260200160068201548152602001600782015481526020016008820160009054906101000a900460ff161515151581526020016008820160019054906101000a900460ff161515151581526020016009820154815250509080600b01805461121590612c14565b80601f016020809104026020016040519081016040528092919081815260200182805461124190612c14565b801561128e5780601f106112635761010080835404028352916020019161128e565b820191906000526020600020905b81548152906001019060200180831161127157829003601f168201915b50505050509080600c0180546112a390612c14565b80601f01602080910402602001604051908101604052809291908181526020018280546112cf90612c14565b801561131c5780601f106112f15761010080835404028352916020019161131c565b820191906000526020600020905b8154815290600101906020018083116112ff57829003601f168201915b5050505050905083565b806002600082815260200190815260200160002060010160000160009054906101000a900473ffffffffffffffffffffffffffffffffffffffff1673ffffffffffffffffffffffffffffffffffffffff163373ffffffffffffffffffffffffffffffffffffffff16146113ce576040517f08c379a00000000000000000000000000000000000000000000000000000000081526004016113c5906125d0565b60405180910390fd5b60006002600084815260200190815260200160002060010190508060080160009054906101000a900460ff161561143a576040517f08c379a0000000000000000000000000000000000000000000000000000000008152600401611431906127a0565b60405180910390fd5b8060080160019054906101000a900460ff161561148c576040517f08c379a00000000000000000000000000000000000000000000000000000000081526004016114839061280c565b60405180910390fd5b60008160090154116114d3576040517f08c379a00000000000000000000000000000000000000000000000000000000081526004016114ca906126a8565b60405180910390fd5b60026000848152602001908152602001600020600101600080820160006101000a81549073ffffffffffffffffffffffffffffffffffffffff021916905560018201600090556002820160006101000a81549073ffffffffffffffffffffffffffffffffffffffff0219169055600382016000905560048201600090556005820160009055600682016000905560078201600090556008820160006101000a81549060ff02191690556008820160016101000a81549060ff021916905560098201600090555050827f2809c7e17bf978fbc7194c0a694b638c4215e9140cacc6c38ca36010b45697df60405160405180910390a2505050565b60015481565b6000806000806000806002600088815260200190815260200160002060010190508060040154816005015482600701548360080160009054906101000a900460ff168460080160019054906101000a900460ff16955095509550955095505091939590929450565b611642611d8c565b600060026000838152602001908152602001600020600101905060006002600084815260200190815260200160002090508160080160009054906101000a900460ff1680156116a057508160080160019054906101000a900460ff16155b6116df576040517f08c379a00000000000000000000000000000000000000000000000000000000081526004016116d690612f55565b60405180910390fd5b816007015442118061170357508160050154826004015461170091906126f7565b42115b611742576040517f08c379a000000000000000000000000000000000000000000000000000000000815260040161173990612fc1565b60405180910390fd5b60008260080160006101000a81548160ff02191690831515021790555060018260080160016101000a81548160ff021916908315150217905550600073ffffffffffffffffffffffffffffffffffffffff168260020160009054906101000a900473ffffffffffffffffffffffffffffffffffffffff1673ffffffffffffffffffffffffffffffffffffffff16146119cb5760005b81600001805490508110156118f4578160000181815481106117fc576117fb61282c565b5b906000526020600020906002020160000160009054906101000a900473ffffffffffffffffffffffffffffffffffffffff1673ffffffffffffffffffffffffffffffffffffffff166323b872dd308560020160009054906101000a900473ffffffffffffffffffffffffffffffffffffffff168560000185815481106118855761188461282c565b5b9060005260206000209060020201600101546040518463ffffffff1660e01b81526004016118b59392919061286a565b600060405180830381600087803b1580156118cf57600080fd5b505af11580156118e3573d6000803e3d6000fd5b5050505080806001019150506117d7565b508160000160009054906101000a900473ffffffffffffffffffffffffffffffffffffffff1673ffffffffffffffffffffffffffffffffffffffff166108fc83600101549081150290604051600060405180830381858888f19350505050158015611963573d6000803e3d6000fd5b50827fd2aa34a4fdbbc6dff6a3e56f46e0f3ae2a31d7785ff3487aa5c95c642acea5018360020160009054906101000a900473ffffffffffffffffffffffffffffffffffffffff1684600101546040516119be929190612a51565b60405180910390a2611b28565b60005b8160000180549050811015611aeb578160000181815481106119f3576119f261282c565b5b906000526020600020906002020160000160009054906101000a900473ffffffffffffffffffffffffffffffffffffffff1673ffffffffffffffffffffffffffffffffffffffff166323b872dd308560000160009054906101000a900473ffffffffffffffffffffffffffffffffffffffff16856000018581548110611a7c57611a7b61282c565b5b9060005260206000209060020201600101546040518463ffffffff1660e01b8152600401611aac9392919061286a565b600060405180830381600087803b158015611ac657600080fd5b505af1158015611ada573d6000803e3d6000fd5b5050505080806001019150506119ce565b50827fd2aa34a4fdbbc6dff6a3e56f46e0f3ae2a31d7785ff3487aa5c95c642acea501600080604051611b1f92919061301c565b60405180910390a25b5050611b32611dd2565b50565b60606003805480602002602001604051908101604052809291908181526020018280548015611b8357602002820191906000526020600020905b815481526020019060010190808311611b6f575b5050505050905090565b826002600082815260200190815260200160002060010160000160009054906101000a900473ffffffffffffffffffffffffffffffffffffffff1673ffffffffffffffffffffffffffffffffffffffff163373ffffffffffffffffffffffffffffffffffffffff1614611c35576040517f08c379a0000000000000000000000000000000000000000000000000000000008152600401611c2c906125d0565b60405180910390fd5b60006002600086815260200190815260200160002060010190508060080160009054906101000a900460ff16158015611c7d57508060080160019054906101000a900460ff16155b611cbc576040517f08c379a0000000000000000000000000000000000000000000000000000000008152600401611cb390613091565b60405180910390fd5b60008311611cff576040517f08c379a0000000000000000000000000000000000000000000000000000000008152600401611cf6906130fd565b60405180910390fd5b838160090181905550838160010181905550601e81600501819055508281600601819055506003859080600181540180825580915050600190039060005260206000200160009091909190915055847fe00a2da3a0f34a566402a244ab7ec63f8ab7472591cb18edf3269aa00461a41085604051611d7d9190611fa9565b60405180910390a25050505050565b600260005403611dc8576040517f3ee5aeb500000000000000000000000000000000000000000000000000000000815260040160405180910390fd5b6002600081905550565b6001600081905550565b5080546000825560020290600052602060002090810190611dfd9190611eca565b50565b508054611e0c90612c14565b6000825580601f10611e1e5750611e3d565b601f016020900490600052602060002090810190611e3c9190611f10565b5b50565b604051806101600160405280600073ffffffffffffffffffffffffffffffffffffffff16815260200160008152602001600073ffffffffffffffffffffffffffffffffffffffff1681526020016000815260200160008152602001600081526020016000815260200160008152602001600015158152602001600015158152602001600081525090565b5b80821115611f0c57600080820160006101000a81549073ffffffffffffffffffffffffffffffffffffffff0219169055600182016000905550600201611ecb565b5090565b5b80821115611f29576000816000905550600101611f11565b5090565b600080fd5b600080fd5b6000819050919050565b611f4a81611f37565b8114611f5557600080fd5b50565b600081359050611f6781611f41565b92915050565b600060208284031215611f8357611f82611f2d565b5b6000611f9184828501611f58565b91505092915050565b611fa381611f37565b82525050565b6000602082019050611fbe6000830184611f9a565b92915050565b600080fd5b600080fd5b600080fd5b60008083601f840112611fe957611fe8611fc4565b5b8235905067ffffffffffffffff81111561200657612005611fc9565b5b60208301915083602082028301111561202257612021611fce565b5b9250929050565b60008083601f84011261203f5761203e611fc4565b5b8235905067ffffffffffffffff81111561205c5761205b611fc9565b5b60208301915083602082028301111561207857612077611fce565b5b9250929050565b60008083601f84011261209557612094611fc4565b5b8235905067ffffffffffffffff8111156120b2576120b1611fc9565b5b6020830191508360018202830111156120ce576120cd611fce565b5b9250929050565b6000806000806000806000806080898b0312156120f5576120f4611f2d565b5b600089013567ffffffffffffffff81111561211357612112611f32565b5b61211f8b828c01611fd3565b9850985050602089013567ffffffffffffffff81111561214257612141611f32565b5b61214e8b828c01612029565b9650965050604089013567ffffffffffffffff81111561217157612170611f32565b5b61217d8b828c0161207f565b9450945050606089013567ffffffffffffffff8111156121a05761219f611f32565b5b6121ac8b828c0161207f565b92509250509295985092959890939650565b600073ffffffffffffffffffffffffffffffffffffffff82169050919050565b60006121e9826121be565b9050919050565b6121f9816121de565b82525050565b61220881611f37565b82525050565b60008115159050919050565b6122238161220e565b82525050565b6101608201600082015161224060008501826121f0565b50602082015161225360208501826121ff565b50604082015161226660408501826121f0565b50606082015161227960608501826121ff565b50608082015161228c60808501826121ff565b5060a082015161229f60a08501826121ff565b5060c08201516122b260c08501826121ff565b5060e08201516122c560e08501826121ff565b506101008201516122da61010085018261221a565b506101208201516122ef61012085018261221a565b506101408201516123046101408501826121ff565b50505050565b6000610160820190506123206000830184612229565b92915050565b600081519050919050565b600082825260208201905092915050565b60005b83811015612360578082015181840152602081019050612345565b60008484015250505050565b6000601f19601f8301169050919050565b600061238882612326565b6123928185612331565b93506123a2818560208601612342565b6123ab8161236c565b840191505092915050565b60006101a0820190506123cc6000830186612229565b8181036101608301526123df818561237d565b90508181036101808301526123f4818461237d565b9050949350505050565b6124078161220e565b82525050565b600060a0820190506124226000830188611f9a565b61242f6020830187611f9a565b61243c6040830186611f9a565b61244960608301856123fe565b61245660808301846123fe565b9695505050505050565b600081519050919050565b600082825260208201905092915050565b6000819050602082019050919050565b600061249883836121ff565b60208301905092915050565b6000602082019050919050565b60006124bc82612460565b6124c6818561246b565b93506124d18361247c565b8060005b838110156125025781516124e9888261248c565b97506124f4836124a4565b9250506001810190506124d5565b5085935050505092915050565b6000602082019050818103600083015261252981846124b1565b905092915050565b60008060006060848603121561254a57612549611f2d565b5b600061255886828701611f58565b935050602061256986828701611f58565b925050604061257a86828701611f58565b9150509250925092565b7f4e6f74207661756c742073656c6c657200000000000000000000000000000000600082015250565b60006125ba601083612331565b91506125c582612584565b602082019050919050565b600060208201905081810360008301526125e9816125ad565b9050919050565b7f416c726561647920616374697665000000000000000000000000000000000000600082015250565b6000612626600e83612331565b9150612631826125f0565b602082019050919050565b6000602082019050818103600083015261265581612619565b9050919050565b7f41756374696f6e206e6f74206372656174656400000000000000000000000000600082015250565b6000612692601383612331565b915061269d8261265c565b602082019050919050565b600060208201905081810360008301526126c181612685565b9050919050565b7f4e487b7100000000000000000000000000000000000000000000000000000000600052601160045260246000fd5b600061270282611f37565b915061270d83611f37565b9250828201905080821115612725576127246126c8565b5b92915050565b60006040820190506127406000830185611f9a565b61274d6020830184611f9a565b9392505050565b7f41756374696f6e20616c72656164792073746172746564000000000000000000600082015250565b600061278a601783612331565b915061279582612754565b602082019050919050565b600060208201905081810360008301526127b98161277d565b9050919050565b7f41756374696f6e20616c726561647920656e6465640000000000000000000000600082015250565b60006127f6601583612331565b9150612801826127c0565b602082019050919050565b60006020820190508181036000830152612825816127e9565b9050919050565b7f4e487b7100000000000000000000000000000000000000000000000000000000600052603260045260246000fd5b612864816121de565b82525050565b600060608201905061287f600083018661285b565b61288c602083018561285b565b6128996040830184611f9a565b949350505050565b7f41756374696f6e20696e61637469766500000000000000000000000000000000600082015250565b60006128d7601083612331565b91506128e2826128a1565b602082019050919050565b60006020820190508181036000830152612906816128ca565b9050919050565b7f41756374696f6e206475726174696f6e20656e64656400000000000000000000600082015250565b6000612943601683612331565b915061294e8261290d565b602082019050919050565b6000602082019050818103600083015261297281612936565b9050919050565b7f4269642077696e646f7720657870697265640000000000000000000000000000600082015250565b60006129af601283612331565b91506129ba82612979565b602082019050919050565b600060208201905081810360008301526129de816129a2565b9050919050565b7f426964206d757374206265202b31000000000000000000000000000000000000600082015250565b6000612a1b600e83612331565b9150612a26826129e5565b602082019050919050565b60006020820190508181036000830152612a4a81612a0e565b9050919050565b6000604082019050612a66600083018561285b565b612a736020830184611f9a565b9392505050565b7f4c656e677468206d69736d617463680000000000000000000000000000000000600082015250565b6000612ab0600f83612331565b9150612abb82612a7a565b602082019050919050565b60006020820190508181036000830152612adf81612aa3565b9050919050565b7f456d707479207661756c74000000000000000000000000000000000000000000600082015250565b6000612b1c600b83612331565b9150612b2782612ae6565b602082019050919050565b60006020820190508181036000830152612b4b81612b0f565b9050919050565b612b5b816121de565b8114612b6657600080fd5b50565b600081359050612b7881612b52565b92915050565b600060208284031215612b9457612b93611f2d565b5b6000612ba284828501612b69565b91505092915050565b600082905092915050565b7f4e487b7100000000000000000000000000000000000000000000000000000000600052604160045260246000fd5b7f4e487b7100000000000000000000000000000000000000000000000000000000600052602260045260246000fd5b60006002820490506001821680612c2c57607f821691505b602082108103612c3f57612c3e612be5565b5b50919050565b60008190508160005260206000209050919050565b60006020601f8301049050919050565b600082821b905092915050565b600060088302612ca77fffffffffffffffffffffffffffffffffffffffffffffffffffffffffffffffff82612c6a565b612cb18683612c6a565b95508019841693508086168417925050509392505050565b6000819050919050565b6000612cee612ce9612ce484611f37565b612cc9565b611f37565b9050919050565b6000819050919050565b612d0883612cd3565b612d1c612d1482612cf5565b848454612c77565b825550505050565b600090565b612d31612d24565b612d3c818484612cff565b505050565b5b81811015612d6057612d55600082612d29565b600181019050612d42565b5050565b601f821115612da557612d7681612c45565b612d7f84612c5a565b81016020851015612d8e578190505b612da2612d9a85612c5a565b830182612d41565b50505b505050565b600082821c905092915050565b6000612dc860001984600802612daa565b1980831691505092915050565b6000612de18383612db7565b9150826002028217905092915050565b612dfb8383612bab565b67ffffffffffffffff811115612e1457612e13612bb6565b5b612e1e8254612c14565b612e29828285612d64565b6000601f831160018114612e585760008415612e46578287013590505b612e508582612dd5565b865550612eb8565b601f198416612e6686612c45565b60005b82811015612e8e57848901358255600182019150602085019450602081019050612e69565b86831015612eab5784890135612ea7601f891682612db7565b8355505b6001600288020188555050505b50505050505050565b6000612ecc82611f37565b91507fffffffffffffffffffffffffffffffffffffffffffffffffffffffffffffffff8203612efe57612efd6126c8565b5b600182019050919050565b7f496e76616c696420737461746500000000000000000000000000000000000000600082015250565b6000612f3f600d83612331565b9150612f4a82612f09565b602082019050919050565b60006020820190508181036000830152612f6e81612f32565b9050919050565b7f41756374696f6e207374696c6c2072756e6e696e670000000000000000000000600082015250565b6000612fab601583612331565b9150612fb682612f75565b602082019050919050565b60006020820190508181036000830152612fda81612f9e565b9050919050565b6000819050919050565b6000613006613001612ffc84612fe1565b612cc9565b611f37565b9050919050565b61301681612feb565b82525050565b6000604082019050613031600083018561285b565b61303e602083018461300d565b9392505050565b7f41756374696f6e20657869737473000000000000000000000000000000000000600082015250565b600061307b600e83612331565b915061308682613045565b602082019050919050565b600060208201905081810360008301526130aa8161306e565b9050919050565b7f496e76616c6964206475726174696f6e00000000000000000000000000000000600082015250565b60006130e7601083612331565b91506130f2826130b1565b602082019050919050565b60006020820190508181036000830152613116816130da565b905091905056fea2646970667358221220718f986f5621f7d84852062610043d3e0a9b4de6a18f4c6457af61674907af3764736f6c634300081c0033",
  "linkReferences": {},
  "deployedLinkReferences": {}
}