{
  "_format": "hh-sol-artifact-1",
  "contractName": "VaultAuction",
  "sourceName": "contracts/VaultAuction.sol",
  "abi": [
    {
      "inputs": [],
      "name": "ReentrancyGuardReentrantCall",
      "type": "error"
    },
    {
      "anonymous": false,
      "inputs": [
        {
          "indexed": true,
          "internalType": "uint256",
          "name": "vaultId",
          "type": "uint256"
        }
      ],
      "name": "AuctionCancelled",
      "type": "event"
    },
    {
      "anonymous": false,
      "inputs": [
        {
          "indexed": true,
          "internalType": "uint256",
          "name": "vaultId",
          "type": "uint256"
        },
        {
          "indexed": false,
          "internalType": "uint256",
          "name": "startPrice",
          "type": "uint256"
        }
      ],
      "name": "AuctionCreated",
      "type": "event"
    },
    {
      "anonymous": false,
      "inputs": [
        {
          "indexed": true,
          "internalType": "uint256",
          "name": "vaultId",
          "type": "uint256"
        },
        {
          "indexed": false,
          "internalType": "address",
          "name": "winner",
          "type": "address"
        },
        {
          "indexed": false,
          "internalType": "uint256",
          "name": "finalPrice",
          "type": "uint256"
        }
      ],
      "name": "AuctionEnded",
      "type": "event"
    },
    {
      "anonymous": false,
      "inputs": [
        {
          "indexed": true,
          "internalType": "uint256",
          "name": "vaultId",
          "type": "uint256"
        },
        {
          "indexed": false,
          "internalType": "uint256",
          "name": "startTime",
          "type": "uint256"
        },
        {
          "indexed": false,
          "internalType": "uint256",
          "name": "endTime",
          "type": "uint256"
        }
      ],
      "name": "AuctionStarted",
      "type": "event"
    },
    {
      "anonymous": false,
      "inputs": [
        {
          "indexed": true,
          "internalType": "uint256",
          "name": "vaultId",
          "type": "uint256"
        },
        {
          "indexed": false,
          "internalType": "address",
          "name": "bidder",
          "type": "address"
        },
        {
          "indexed": false,
          "internalType": "uint256",
          "name": "amount",
          "type": "uint256"
        }
      ],
      "name": "BidPlaced",
      "type": "event"
    },
    {
      "anonymous": false,
      "inputs": [
        {
          "indexed": true,
          "internalType": "uint256",
          "name": "vaultId",
          "type": "uint256"
        }
      ],
      "name": "VaultCancelled",
      "type": "event"
    },
    {
      "anonymous": false,
      "inputs": [
        {
          "indexed": true,
          "internalType": "uint256",
          "name": "vaultId",
          "type": "uint256"
        },
        {
          "indexed": true,
          "internalType": "address",
          "name": "seller",
          "type": "address"
        }
      ],
      "name": "VaultCreated",
      "type": "event"
    },
    {
      "inputs": [
        {
          "internalType": "uint256",
          "name": "",
          "type": "uint256"
        }
      ],
      "name": "auctionIds",
      "outputs": [
        {
          "internalType": "uint256",
          "name": "",
          "type": "uint256"
        }
      ],
      "stateMutability": "view",
      "type": "function"
    },
    {
      "inputs": [
        {
          "internalType": "uint256",
          "name": "vaultId",
          "type": "uint256"
        }
      ],
      "name": "bid",
      "outputs": [],
      "stateMutability": "payable",
      "type": "function"
    },
    {
      "inputs": [
        {
          "internalType": "uint256",
          "name": "vaultId",
          "type": "uint256"
        }
      ],
      "name": "cancelAuction",
      "outputs": [],
      "stateMutability": "nonpayable",
      "type": "function"
    },
    {
      "inputs": [
        {
          "internalType": "uint256",
          "name": "vaultId",
          "type": "uint256"
        }
      ],
      "name": "cancelVault",
      "outputs": [],
      "stateMutability": "nonpayable",
      "type": "function"
    },
    {
      "inputs": [
        {
          "internalType": "uint256",
          "name": "vaultId",
          "type": "uint256"
        },
        {
          "internalType": "uint256",
          "name": "startPrice",
          "type": "uint256"
        },
        {
          "internalType": "uint256",
          "name": "auctionDuration",
          "type": "uint256"
        }
      ],
      "name": "createAuction",
      "outputs": [],
      "stateMutability": "nonpayable",
      "type": "function"
    },
    {
      "inputs": [
        {
          "internalType": "address[]",
          "name": "nftAddresses",
          "type": "address[]"
        },
        {
          "internalType": "uint256[]",
          "name": "tokenIds",
          "type": "uint256[]"
        },
        {
          "internalType": "string",
          "name": "name",
          "type": "string"
        },
        {
          "internalType": "string",
          "name": "description",
          "type": "string"
        }
      ],
      "name": "createVault",
      "outputs": [],
      "stateMutability": "nonpayable",
      "type": "function"
    },
    {
      "inputs": [
        {
          "internalType": "uint256",
          "name": "vaultId",
          "type": "uint256"
        }
      ],
      "name": "endAuction",
      "outputs": [],
      "stateMutability": "nonpayable",
      "type": "function"
    },
    {
      "inputs": [],
      "name": "getAllAuctions",
      "outputs": [
        {
          "internalType": "uint256[]",
          "name": "",
          "type": "uint256[]"
        }
      ],
      "stateMutability": "view",
      "type": "function"
    },
    {
      "inputs": [
        {
          "internalType": "uint256",
          "name": "vaultId",
          "type": "uint256"
        }
      ],
      "name": "getAuction",
      "outputs": [
        {
          "components": [
            {
              "internalType": "address",
              "name": "seller",
              "type": "address"
            },
            {
              "internalType": "uint256",
              "name": "currentBid",
              "type": "uint256"
            },
            {
              "internalType": "address",
              "name": "highestBidder",
              "type": "address"
            },
            {
              "internalType": "uint256",
              "name": "startTime",
              "type": "uint256"
            },
            {
              "internalType": "uint256",
              "name": "lastBidTime",
              "type": "uint256"
            },
            {
              "internalType": "uint256",
              "name": "bidWindow",
              "type": "uint256"
            },
            {
              "internalType": "uint256",
              "name": "auctionDuration",
              "type": "uint256"
            },
            {
              "internalType": "uint256",
              "name": "endTime",
              "type": "uint256"
            },
            {
              "internalType": "bool",
              "name": "active",
              "type": "bool"
            },
            {
              "internalType": "bool",
              "name": "ended",
              "type": "bool"
            },
            {
              "internalType": "uint256",
              "name": "startPrice",
              "type": "uint256"
            }
          ],
          "internalType": "struct VaultAuction.Auction",
          "name": "",
          "type": "tuple"
        }
      ],
      "stateMutability": "view",
      "type": "function"
    },
    {
      "inputs": [
        {
          "internalType": "uint256",
          "name": "vaultId",
          "type": "uint256"
        }
      ],
      "name": "getAuctionCard",
      "outputs": [
        {
          "internalType": "string",
          "name": "name",
          "type": "string"
        },
        {
          "internalType": "string",
          "name": "description",
          "type": "string"
        },
        {
          "internalType": "bool",
          "name": "isLive",
          "type": "bool"
        },
        {
          "internalType": "bool",
          "name": "isEnded",
          "type": "bool"
        },
        {
          "internalType": "uint256",
          "name": "timeRemaining",
          "type": "uint256"
        },
        {
          "internalType": "uint256",
          "name": "minimumPrice",
          "type": "uint256"
        }
      ],
      "stateMutability": "view",
      "type": "function"
    },
    {
      "inputs": [
        {
          "internalType": "uint256",
          "name": "vaultId",
          "type": "uint256"
        }
      ],
      "name": "getAuctionTiming",
      "outputs": [
        {
          "internalType": "uint256",
          "name": "lastBidTime",
          "type": "uint256"
        },
        {
          "internalType": "uint256",
          "name": "bidWindow",
          "type": "uint256"
        },
        {
          "internalType": "uint256",
          "name": "endTime",
          "type": "uint256"
        },
        {
          "internalType": "bool",
          "name": "active",
          "type": "bool"
        },
        {
          "internalType": "bool",
          "name": "ended",
          "type": "bool"
        }
      ],
      "stateMutability": "view",
      "type": "function"
    },
    {
      "inputs": [
        {
          "internalType": "uint256",
          "name": "vaultId",
          "type": "uint256"
        }
      ],
      "name": "getVaultWithAuction",
      "outputs": [
        {
          "internalType": "string",
          "name": "name",
          "type": "string"
        },
        {
          "internalType": "string",
          "name": "description",
          "type": "string"
        },
        {
          "components": [
            {
              "internalType": "address",
              "name": "nftAddress",
              "type": "address"
            },
            {
              "internalType": "uint256",
              "name": "tokenId",
              "type": "uint256"
            }
          ],
          "internalType": "struct VaultAuction.NFTItem[]",
          "name": "nfts",
          "type": "tuple[]"
        },
        {
          "internalType": "address",
          "name": "seller",
          "type": "address"
        },
        {
          "internalType": "uint256",
          "name": "currentBid",
          "type": "uint256"
        },
        {
          "internalType": "address",
          "name": "highestBidder",
          "type": "address"
        },
        {
          "internalType": "uint256",
          "name": "lastBidTime",
          "type": "uint256"
        },
        {
          "internalType": "bool",
          "name": "active",
          "type": "bool"
        },
        {
          "internalType": "bool",
          "name": "ended",
          "type": "bool"
        },
        {
          "internalType": "uint256",
          "name": "startPrice",
          "type": "uint256"
        }
      ],
      "stateMutability": "view",
      "type": "function"
    },
    {
      "inputs": [
        {
          "internalType": "uint256",
          "name": "vaultId",
          "type": "uint256"
        },
        {
          "internalType": "address",
          "name": "user",
          "type": "address"
        }
      ],
      "name": "isVaultSeller",
      "outputs": [
        {
          "internalType": "bool",
          "name": "",
          "type": "bool"
        }
      ],
      "stateMutability": "view",
      "type": "function"
    },
    {
      "inputs": [
        {
          "internalType": "uint256",
          "name": "vaultId",
          "type": "uint256"
        }
      ],
      "name": "startAuction",
      "outputs": [],
      "stateMutability": "nonpayable",
      "type": "function"
    },
    {
      "inputs": [],
      "name": "vaultCount",
      "outputs": [
        {
          "internalType": "uint256",
          "name": "",
          "type": "uint256"
        }
      ],
      "stateMutability": "view",
      "type": "function"
    },
    {
      "inputs": [
        {
          "internalType": "uint256",
          "name": "",
          "type": "uint256"
        }
      ],
      "name": "vaults",
      "outputs": [
        {
          "components": [
            {
              "internalType": "address",
              "name": "seller",
              "type": "address"
            },
            {
              "internalType": "uint256",
              "name": "currentBid",
              "type": "uint256"
            },
            {
              "internalType": "address",
              "name": "highestBidder",
              "type": "address"
            },
            {
              "internalType": "uint256",
              "name": "startTime",
              "type": "uint256"
            },
            {
              "internalType": "uint256",
              "name": "lastBidTime",
              "type": "uint256"
            },
            {
              "internalType": "uint256",
              "name": "bidWindow",
              "type": "uint256"
            },
            {
              "internalType": "uint256",
              "name": "auctionDuration",
              "type": "uint256"
            },
            {
              "internalType": "uint256",
              "name": "endTime",
              "type": "uint256"
            },
            {
              "internalType": "bool",
              "name": "active",
              "type": "bool"
            },
            {
              "internalType": "bool",
              "name": "ended",
              "type": "bool"
            },
            {
              "internalType": "uint256",
              "name": "startPrice",
              "type": "uint256"
            }
          ],
          "internalType": "struct VaultAuction.Auction",
          "name": "auction",
          "type": "tuple"
        },
        {
          "internalType": "string",
          "name": "name",
          "type": "string"
        },
        {
          "internalType": "string",
          "name": "description",
          "type": "string"
        }
      ],
      "stateMutability": "view",
      "type": "function"
    }
  ],
  "bytecode": "0x6080604052348015600f57600080fd5b50600160008190555061399e806100276000396000f3fe6080604052600436106100f35760003560e01c80638c64ea4a1161008a578063b9a2de3a11610059578063b9a2de3a14610360578063cbd2bdfd14610389578063cda4beef146103b4578063e998838e146103dd576100f3565b80638c64ea4a1461028c57806396b5a755146102cb578063a7c6a100146102f4578063b033b97c1461031f576100f3565b806363c2c917116100c657806363c2c917146101a357806363e03956146101cc578063705a311f1461020957806378bd79351461024f576100f3565b8063065de74c146100f85780630cc1a407146101215780632a6433be1461014a578063454a2ab314610187575b600080fd5b34801561010457600080fd5b5061011f600480360381019061011a919061252b565b61041f565b005b34801561012d57600080fd5b506101486004803603810190610143919061252b565b610625565b005b34801561015657600080fd5b50610171600480360381019061016c919061252b565b6109f1565b60405161017e9190612567565b60405180910390f35b6101a1600480360381019061019c919061252b565b610a15565b005b3480156101af57600080fd5b506101ca60048036038101906101c59190612693565b610cf5565b005b3480156101d857600080fd5b506101f360048036038101906101ee91906127da565b61102d565b6040516102009190612835565b60405180910390f35b34801561021557600080fd5b50610230600480360381019061022b919061252b565b61109f565b6040516102469a999897969594939291906129eb565b60405180910390f35b34801561025b57600080fd5b506102766004803603810190610271919061252b565b61134a565b6040516102839190612b8c565b60405180910390f35b34801561029857600080fd5b506102b360048036038101906102ae919061252b565b6114a3565b6040516102c293929190612ba8565b60405180910390f35b3480156102d757600080fd5b506102f260048036038101906102ed919061252b565b611710565b005b34801561030057600080fd5b506103096119b6565b6040516103169190612567565b60405180910390f35b34801561032b57600080fd5b506103466004803603810190610341919061252b565b6119bc565b604051610357959493929190612bf0565b60405180910390f35b34801561036c57600080fd5b506103876004803603810190610382919061252b565b611a24565b005b34801561039557600080fd5b5061039e611f1f565b6040516103ab9190612cf2565b60405180910390f35b3480156103c057600080fd5b506103db60048036038101906103d69190612d14565b611f77565b005b3480156103e957600080fd5b5061040460048036038101906103ff919061252b565b612176565b60405161041696959493929190612d67565b60405180910390f35b806002600082815260200190815260200160002060010160000160009054906101000a900473ffffffffffffffffffffffffffffffffffffffff1673ffffffffffffffffffffffffffffffffffffffff163373ffffffffffffffffffffffffffffffffffffffff16146104c7576040517f08c379a00000000000000000000000000000000000000000000000000000000081526004016104be90612e22565b60405180910390fd5b60006002600084815260200190815260200160002060010190508060080160009054906101000a900460ff1615610533576040517f08c379a000000000000000000000000000000000000000000000000000000000815260040161052a90612e8e565b60405180910390fd5b600081600901541161057a576040517f08c379a000000000000000000000000000000000000000000000000000000000815260040161057190612efa565b60405180910390fd5b42816003018190555042816004018190555080600601544261059c9190612f49565b816007018190555060018160080160006101000a81548160ff02191690831515021790555060008160080160016101000a81548160ff021916908315150217905550827f44c53be110c6aa83aa83cd02e351ed172359268272ee1b5d31c0fe48db35c6c782600301548360070154604051610618929190612f7d565b60405180910390a2505050565b806002600082815260200190815260200160002060010160000160009054906101000a900473ffffffffffffffffffffffffffffffffffffffff1673ffffffffffffffffffffffffffffffffffffffff163373ffffffffffffffffffffffffffffffffffffffff16146106cd576040517f08c379a00000000000000000000000000000000000000000000000000000000081526004016106c490612e22565b60405180910390fd5b600060026000848152602001908152602001600020600101905060006002600085815260200190815260200160002090508160080160009054906101000a900460ff1615610750576040517f08c379a000000000000000000000000000000000000000000000000000000000815260040161074790612ff2565b60405180910390fd5b8160080160019054906101000a900460ff16156107a2576040517f08c379a00000000000000000000000000000000000000000000000000000000081526004016107999061305e565b60405180910390fd5b60005b81600001805490508110156108c2578160000181815481106107ca576107c961307e565b5b906000526020600020906002020160000160009054906101000a900473ffffffffffffffffffffffffffffffffffffffff1673ffffffffffffffffffffffffffffffffffffffff166323b872dd308560000160009054906101000a900473ffffffffffffffffffffffffffffffffffffffff168560000185815481106108535761085261307e565b5b9060005260206000209060020201600101546040518463ffffffff1660e01b8152600401610883939291906130ad565b600060405180830381600087803b15801561089d57600080fd5b505af11580156108b1573d6000803e3d6000fd5b5050505080806001019150506107a5565b5060026000858152602001908152602001600020600080820160006108e7919061239a565b60018201600080820160006101000a81549073ffffffffffffffffffffffffffffffffffffffff021916905560018201600090556002820160006101000a81549073ffffffffffffffffffffffffffffffffffffffff0219169055600382016000905560048201600090556005820160009055600682016000905560078201600090556008820160006101000a81549060ff02191690556008820160016101000a81549060ff021916905560098201600090555050600b820160006109ac91906123be565b600c820160006109bc91906123be565b5050837f79142c75c3043943496c0c003aa076e8da7ed0f01f76c6b198ae5159b742c3f460405160405180910390a250505050565b60038181548110610a0157600080fd5b906000526020600020016000915090505481565b610a1d61234a565b60006002600083815260200190815260200160002060010190508060080160009054906101000a900460ff168015610a6457508060080160019054906101000a900460ff16155b610aa3576040517f08c379a0000000000000000000000000000000000000000000000000000000008152600401610a9a90613130565b60405180910390fd5b8060070154421115610aea576040517f08c379a0000000000000000000000000000000000000000000000000000000008152600401610ae19061319c565b60405180910390fd5b80600501548160040154610afe9190612f49565b421115610b40576040517f08c379a0000000000000000000000000000000000000000000000000000000008152600401610b3790613208565b60405180910390fd5b60018160010154610b519190612f49565b3414610b92576040517f08c379a0000000000000000000000000000000000000000000000000000000008152600401610b8990613274565b60405180910390fd5b600073ffffffffffffffffffffffffffffffffffffffff168160020160009054906101000a900473ffffffffffffffffffffffffffffffffffffffff1673ffffffffffffffffffffffffffffffffffffffff1614610c5a578060020160009054906101000a900473ffffffffffffffffffffffffffffffffffffffff1673ffffffffffffffffffffffffffffffffffffffff166108fc82600101549081150290604051600060405180830381858888f19350505050158015610c58573d6000803e3d6000fd5b505b348160010181905550338160020160006101000a81548173ffffffffffffffffffffffffffffffffffffffff021916908373ffffffffffffffffffffffffffffffffffffffff160217905550428160040181905550817f0e54eff26401bf69b81b26f60bd85ef47f5d85275c1d268d84f68d6897431c473334604051610ce1929190613294565b60405180910390a250610cf2612390565b50565b858590508888905014610d3d576040517f08c379a0000000000000000000000000000000000000000000000000000000008152600401610d3490613309565b60405180910390fd5b60008888905011610d83576040517f08c379a0000000000000000000000000000000000000000000000000000000008152600401610d7a90613375565b60405180910390fd5b60006001549050600060026000838152602001908152602001600020905060005b8a8a9050811015610f56578a8a82818110610dc257610dc161307e565b5b9050602002016020810190610dd79190613395565b73ffffffffffffffffffffffffffffffffffffffff166323b872dd33308c8c86818110610e0757610e0661307e565b5b905060200201356040518463ffffffff1660e01b8152600401610e2c939291906130ad565b600060405180830381600087803b158015610e4657600080fd5b505af1158015610e5a573d6000803e3d6000fd5b505050508160000160405180604001604052808d8d85818110610e8057610e7f61307e565b5b9050602002016020810190610e959190613395565b73ffffffffffffffffffffffffffffffffffffffff1681526020018b8b85818110610ec357610ec261307e565b5b90506020020135815250908060018154018082558091505060019003906000526020600020906002020160009091909190915060008201518160000160006101000a81548173ffffffffffffffffffffffffffffffffffffffff021916908373ffffffffffffffffffffffffffffffffffffffff1602179055506020820151816001015550508080600101915050610da4565b50338160010160000160006101000a81548173ffffffffffffffffffffffffffffffffffffffff021916908373ffffffffffffffffffffffffffffffffffffffff160217905550858582600b019182610fb0929190613608565b50838382600c019182610fc4929190613608565b5060016000815480929190610fd8906136d8565b91905055503373ffffffffffffffffffffffffffffffffffffffff16827fbf3e9c93de94306b70ac5b9411edf475545815333bf651b894b9eada6482c59460405160405180910390a350505050505050505050565b60008173ffffffffffffffffffffffffffffffffffffffff166002600085815260200190815260200160002060010160000160009054906101000a900473ffffffffffffffffffffffffffffffffffffffff1673ffffffffffffffffffffffffffffffffffffffff1614905092915050565b6060806060600080600080600080600080600260008d81526020019081526020016000209050600081600101905081600b0182600c01836000018360000160009054906101000a900473ffffffffffffffffffffffffffffffffffffffff1684600101548560020160009054906101000a900473ffffffffffffffffffffffffffffffffffffffff1686600401548760080160009054906101000a900460ff168860080160019054906101000a900460ff1689600901548980546111629061342b565b80601f016020809104026020016040519081016040528092919081815260200182805461118e9061342b565b80156111db5780601f106111b0576101008083540402835291602001916111db565b820191906000526020600020905b8154815290600101906020018083116111be57829003601f168201915b505050505099508880546111ee9061342b565b80601f016020809104026020016040519081016040528092919081815260200182805461121a9061342b565b80156112675780601f1061123c57610100808354040283529160200191611267565b820191906000526020600020905b81548152906001019060200180831161124a57829003601f168201915b5050505050985087805480602002602001604051908101604052809291908181526020016000905b8282101561132157838290600052602060002090600202016040518060400160405290816000820160009054906101000a900473ffffffffffffffffffffffffffffffffffffffff1673ffffffffffffffffffffffffffffffffffffffff1673ffffffffffffffffffffffffffffffffffffffff1681526020016001820154815250508152602001906001019061128f565b5050505097509b509b509b509b509b509b509b509b509b509b5050509193959799509193959799565b6113526123fe565b60026000838152602001908152602001600020600101604051806101600160405290816000820160009054906101000a900473ffffffffffffffffffffffffffffffffffffffff1673ffffffffffffffffffffffffffffffffffffffff1673ffffffffffffffffffffffffffffffffffffffff168152602001600182015481526020016002820160009054906101000a900473ffffffffffffffffffffffffffffffffffffffff1673ffffffffffffffffffffffffffffffffffffffff1673ffffffffffffffffffffffffffffffffffffffff16815260200160038201548152602001600482015481526020016005820154815260200160068201548152602001600782015481526020016008820160009054906101000a900460ff161515151581526020016008820160019054906101000a900460ff161515151581526020016009820154815250509050919050565b600260205280600052604060002060009150905080600101604051806101600160405290816000820160009054906101000a900473ffffffffffffffffffffffffffffffffffffffff1673ffffffffffffffffffffffffffffffffffffffff1673ffffffffffffffffffffffffffffffffffffffff168152602001600182015481526020016002820160009054906101000a900473ffffffffffffffffffffffffffffffffffffffff1673ffffffffffffffffffffffffffffffffffffffff1673ffffffffffffffffffffffffffffffffffffffff16815260200160038201548152602001600482015481526020016005820154815260200160068201548152602001600782015481526020016008820160009054906101000a900460ff161515151581526020016008820160019054906101000a900460ff161515151581526020016009820154815250509080600b0180546115ff9061342b565b80601f016020809104026020016040519081016040528092919081815260200182805461162b9061342b565b80156116785780601f1061164d57610100808354040283529160200191611678565b820191906000526020600020905b81548152906001019060200180831161165b57829003601f168201915b50505050509080600c01805461168d9061342b565b80601f01602080910402602001604051908101604052809291908181526020018280546116b99061342b565b80156117065780601f106116db57610100808354040283529160200191611706565b820191906000526020600020905b8154815290600101906020018083116116e957829003601f168201915b5050505050905083565b806002600082815260200190815260200160002060010160000160009054906101000a900473ffffffffffffffffffffffffffffffffffffffff1673ffffffffffffffffffffffffffffffffffffffff163373ffffffffffffffffffffffffffffffffffffffff16146117b8576040517f08c379a00000000000000000000000000000000000000000000000000000000081526004016117af90612e22565b60405180910390fd5b60006002600084815260200190815260200160002060010190508060080160009054906101000a900460ff1615611824576040517f08c379a000000000000000000000000000000000000000000000000000000000815260040161181b90612ff2565b60405180910390fd5b8060080160019054906101000a900460ff1615611876576040517f08c379a000000000000000000000000000000000000000000000000000000000815260040161186d9061305e565b60405180910390fd5b60008160090154116118bd576040517f08c379a00000000000000000000000000000000000000000000000000000000081526004016118b490612efa565b60405180910390fd5b60026000848152602001908152602001600020600101600080820160006101000a81549073ffffffffffffffffffffffffffffffffffffffff021916905560018201600090556002820160006101000a81549073ffffffffffffffffffffffffffffffffffffffff0219169055600382016000905560048201600090556005820160009055600682016000905560078201600090556008820160006101000a81549060ff02191690556008820160016101000a81549060ff021916905560098201600090555050827f2809c7e17bf978fbc7194c0a694b638c4215e9140cacc6c38ca36010b45697df60405160405180910390a2505050565b60015481565b6000806000806000806002600088815260200190815260200160002060010190508060040154816005015482600701548360080160009054906101000a900460ff168460080160019054906101000a900460ff16955095509550955095505091939590929450565b611a2c61234a565b600060026000838152602001908152602001600020600101905060006002600084815260200190815260200160002090508160080160009054906101000a900460ff168015611a8a57508160080160019054906101000a900460ff16155b611ac9576040517f08c379a0000000000000000000000000000000000000000000000000000000008152600401611ac09061376c565b60405180910390fd5b8160070154421180611aed575081600501548260040154611aea9190612f49565b42115b611b2c576040517f08c379a0000000000000000000000000000000000000000000000000000000008152600401611b23906137d8565b60405180910390fd5b60008260080160006101000a81548160ff02191690831515021790555060018260080160016101000a81548160ff021916908315150217905550600073ffffffffffffffffffffffffffffffffffffffff168260020160009054906101000a900473ffffffffffffffffffffffffffffffffffffffff1673ffffffffffffffffffffffffffffffffffffffff1614611db55760005b8160000180549050811015611cde57816000018181548110611be657611be561307e565b5b906000526020600020906002020160000160009054906101000a900473ffffffffffffffffffffffffffffffffffffffff1673ffffffffffffffffffffffffffffffffffffffff166323b872dd308560020160009054906101000a900473ffffffffffffffffffffffffffffffffffffffff16856000018581548110611c6f57611c6e61307e565b5b9060005260206000209060020201600101546040518463ffffffff1660e01b8152600401611c9f939291906130ad565b600060405180830381600087803b158015611cb957600080fd5b505af1158015611ccd573d6000803e3d6000fd5b505050508080600101915050611bc1565b508160000160009054906101000a900473ffffffffffffffffffffffffffffffffffffffff1673ffffffffffffffffffffffffffffffffffffffff166108fc83600101549081150290604051600060405180830381858888f19350505050158015611d4d573d6000803e3d6000fd5b50827fd2aa34a4fdbbc6dff6a3e56f46e0f3ae2a31d7785ff3487aa5c95c642acea5018360020160009054906101000a900473ffffffffffffffffffffffffffffffffffffffff168460010154604051611da8929190613294565b60405180910390a2611f12565b60005b8160000180549050811015611ed557816000018181548110611ddd57611ddc61307e565b5b906000526020600020906002020160000160009054906101000a900473ffffffffffffffffffffffffffffffffffffffff1673ffffffffffffffffffffffffffffffffffffffff166323b872dd308560000160009054906101000a900473ffffffffffffffffffffffffffffffffffffffff16856000018581548110611e6657611e6561307e565b5b9060005260206000209060020201600101546040518463ffffffff1660e01b8152600401611e96939291906130ad565b600060405180830381600087803b158015611eb057600080fd5b505af1158015611ec4573d6000803e3d6000fd5b505050508080600101915050611db8565b50827fd2aa34a4fdbbc6dff6a3e56f46e0f3ae2a31d7785ff3487aa5c95c642acea501600080604051611f09929190613833565b60405180910390a25b5050611f1c612390565b50565b60606003805480602002602001604051908101604052809291908181526020018280548015611f6d57602002820191906000526020600020905b815481526020019060010190808311611f59575b5050505050905090565b826002600082815260200190815260200160002060010160000160009054906101000a900473ffffffffffffffffffffffffffffffffffffffff1673ffffffffffffffffffffffffffffffffffffffff163373ffffffffffffffffffffffffffffffffffffffff161461201f576040517f08c379a000000000000000000000000000000000000000000000000000000000815260040161201690612e22565b60405180910390fd5b60006002600086815260200190815260200160002060010190508060080160009054906101000a900460ff1615801561206757508060080160019054906101000a900460ff16155b6120a6576040517f08c379a000000000000000000000000000000000000000000000000000000000815260040161209d906138a8565b60405180910390fd5b600083116120e9576040517f08c379a00000000000000000000000000000000000000000000000000000000081526004016120e090613914565b60405180910390fd5b838160090181905550838160010181905550603c81600501819055508281600601819055506003859080600181540180825580915050600190039060005260206000200160009091909190915055847fe00a2da3a0f34a566402a244ab7ec63f8ab7472591cb18edf3269aa00461a410856040516121679190612567565b60405180910390a25050505050565b6060806000806000806000600260008981526020019081526020016000209050600081600101905060008160080160019054906101000a900460ff16156121c057600090506121e8565b816007015442106121d457600090506121e7565b4282600701546121e49190613934565b90505b5b82600b0183600c018360080160009054906101000a900460ff168460080160019054906101000a900460ff168486600901548580546122269061342b565b80601f01602080910402602001604051908101604052809291908181526020018280546122529061342b565b801561229f5780601f106122745761010080835404028352916020019161229f565b820191906000526020600020905b81548152906001019060200180831161228257829003601f168201915b505050505095508480546122b29061342b565b80601f01602080910402602001604051908101604052809291908181526020018280546122de9061342b565b801561232b5780601f106123005761010080835404028352916020019161232b565b820191906000526020600020905b81548152906001019060200180831161230e57829003601f168201915b5050505050945098509850985098509850985050505091939550919395565b600260005403612386576040517f3ee5aeb500000000000000000000000000000000000000000000000000000000815260040160405180910390fd5b6002600081905550565b6001600081905550565b50805460008255600202906000526020600020908101906123bb9190612488565b50565b5080546123ca9061342b565b6000825580601f106123dc57506123fb565b601f0160209004906000526020600020908101906123fa91906124ce565b5b50565b604051806101600160405280600073ffffffffffffffffffffffffffffffffffffffff16815260200160008152602001600073ffffffffffffffffffffffffffffffffffffffff1681526020016000815260200160008152602001600081526020016000815260200160008152602001600015158152602001600015158152602001600081525090565b5b808211156124ca57600080820160006101000a81549073ffffffffffffffffffffffffffffffffffffffff0219169055600182016000905550600201612489565b5090565b5b808211156124e75760008160009055506001016124cf565b5090565b600080fd5b600080fd5b6000819050919050565b612508816124f5565b811461251357600080fd5b50565b600081359050612525816124ff565b92915050565b600060208284031215612541576125406124eb565b5b600061254f84828501612516565b91505092915050565b612561816124f5565b82525050565b600060208201905061257c6000830184612558565b92915050565b600080fd5b600080fd5b600080fd5b60008083601f8401126125a7576125a6612582565b5b8235905067ffffffffffffffff8111156125c4576125c3612587565b5b6020830191508360208202830111156125e0576125df61258c565b5b9250929050565b60008083601f8401126125fd576125fc612582565b5b8235905067ffffffffffffffff81111561261a57612619612587565b5b6020830191508360208202830111156126365761263561258c565b5b9250929050565b60008083601f84011261265357612652612582565b5b8235905067ffffffffffffffff8111156126705761266f612587565b5b60208301915083600182028301111561268c5761268b61258c565b5b9250929050565b6000806000806000806000806080898b0312156126b3576126b26124eb565b5b600089013567ffffffffffffffff8111156126d1576126d06124f0565b5b6126dd8b828c01612591565b9850985050602089013567ffffffffffffffff811115612700576126ff6124f0565b5b61270c8b828c016125e7565b9650965050604089013567ffffffffffffffff81111561272f5761272e6124f0565b5b61273b8b828c0161263d565b9450945050606089013567ffffffffffffffff81111561275e5761275d6124f0565b5b61276a8b828c0161263d565b92509250509295985092959890939650565b600073ffffffffffffffffffffffffffffffffffffffff82169050919050565b60006127a78261277c565b9050919050565b6127b78161279c565b81146127c257600080fd5b50565b6000813590506127d4816127ae565b92915050565b600080604083850312156127f1576127f06124eb565b5b60006127ff85828601612516565b9250506020612810858286016127c5565b9150509250929050565b60008115159050919050565b61282f8161281a565b82525050565b600060208201905061284a6000830184612826565b92915050565b600081519050919050565b600082825260208201905092915050565b60005b8381101561288a57808201518184015260208101905061286f565b60008484015250505050565b6000601f19601f8301169050919050565b60006128b282612850565b6128bc818561285b565b93506128cc81856020860161286c565b6128d581612896565b840191505092915050565b600081519050919050565b600082825260208201905092915050565b6000819050602082019050919050565b6129158161279c565b82525050565b612924816124f5565b82525050565b604082016000820151612940600085018261290c565b506020820151612953602085018261291b565b50505050565b6000612965838361292a565b60408301905092915050565b6000602082019050919050565b6000612989826128e0565b61299381856128eb565b935061299e836128fc565b8060005b838110156129cf5781516129b68882612959565b97506129c183612971565b9250506001810190506129a2565b5085935050505092915050565b6129e58161279c565b82525050565b6000610140820190508181036000830152612a06818d6128a7565b90508181036020830152612a1a818c6128a7565b90508181036040830152612a2e818b61297e565b9050612a3d606083018a6129dc565b612a4a6080830189612558565b612a5760a08301886129dc565b612a6460c0830187612558565b612a7160e0830186612826565b612a7f610100830185612826565b612a8d610120830184612558565b9b9a5050505050505050505050565b612aa58161281a565b82525050565b61016082016000820151612ac2600085018261290c565b506020820151612ad5602085018261291b565b506040820151612ae8604085018261290c565b506060820151612afb606085018261291b565b506080820151612b0e608085018261291b565b5060a0820151612b2160a085018261291b565b5060c0820151612b3460c085018261291b565b5060e0820151612b4760e085018261291b565b50610100820151612b5c610100850182612a9c565b50610120820151612b71610120850182612a9c565b50610140820151612b8661014085018261291b565b50505050565b600061016082019050612ba26000830184612aab565b92915050565b60006101a082019050612bbe6000830186612aab565b818103610160830152612bd181856128a7565b9050818103610180830152612be681846128a7565b9050949350505050565b600060a082019050612c056000830188612558565b612c126020830187612558565b612c1f6040830186612558565b612c2c6060830185612826565b612c396080830184612826565b9695505050505050565b600081519050919050565b600082825260208201905092915050565b6000819050602082019050919050565b6000612c7b838361291b565b60208301905092915050565b6000602082019050919050565b6000612c9f82612c43565b612ca98185612c4e565b9350612cb483612c5f565b8060005b83811015612ce5578151612ccc8882612c6f565b9750612cd783612c87565b925050600181019050612cb8565b5085935050505092915050565b60006020820190508181036000830152612d0c8184612c94565b905092915050565b600080600060608486031215612d2d57612d2c6124eb565b5b6000612d3b86828701612516565b9350506020612d4c86828701612516565b9250506040612d5d86828701612516565b9150509250925092565b600060c0820190508181036000830152612d8181896128a7565b90508181036020830152612d9581886128a7565b9050612da46040830187612826565b612db16060830186612826565b612dbe6080830185612558565b612dcb60a0830184612558565b979650505050505050565b7f4e6f74207661756c742073656c6c657200000000000000000000000000000000600082015250565b6000612e0c60108361285b565b9150612e1782612dd6565b602082019050919050565b60006020820190508181036000830152612e3b81612dff565b9050919050565b7f416c726561647920616374697665000000000000000000000000000000000000600082015250565b6000612e78600e8361285b565b9150612e8382612e42565b602082019050919050565b60006020820190508181036000830152612ea781612e6b565b9050919050565b7f41756374696f6e206e6f74206372656174656400000000000000000000000000600082015250565b6000612ee460138361285b565b9150612eef82612eae565b602082019050919050565b60006020820190508181036000830152612f1381612ed7565b9050919050565b7f4e487b7100000000000000000000000000000000000000000000000000000000600052601160045260246000fd5b6000612f54826124f5565b9150612f5f836124f5565b9250828201905080821115612f7757612f76612f1a565b5b92915050565b6000604082019050612f926000830185612558565b612f9f6020830184612558565b9392505050565b7f41756374696f6e20616c72656164792073746172746564000000000000000000600082015250565b6000612fdc60178361285b565b9150612fe782612fa6565b602082019050919050565b6000602082019050818103600083015261300b81612fcf565b9050919050565b7f41756374696f6e20616c726561647920656e6465640000000000000000000000600082015250565b600061304860158361285b565b915061305382613012565b602082019050919050565b600060208201905081810360008301526130778161303b565b9050919050565b7f4e487b7100000000000000000000000000000000000000000000000000000000600052603260045260246000fd5b60006060820190506130c260008301866129dc565b6130cf60208301856129dc565b6130dc6040830184612558565b949350505050565b7f41756374696f6e20696e61637469766500000000000000000000000000000000600082015250565b600061311a60108361285b565b9150613125826130e4565b602082019050919050565b600060208201905081810360008301526131498161310d565b9050919050565b7f41756374696f6e206475726174696f6e20656e64656400000000000000000000600082015250565b600061318660168361285b565b915061319182613150565b602082019050919050565b600060208201905081810360008301526131b581613179565b9050919050565b7f4269642077696e646f7720657870697265640000000000000000000000000000600082015250565b60006131f260128361285b565b91506131fd826131bc565b602082019050919050565b60006020820190508181036000830152613221816131e5565b9050919050565b7f426964206d757374206265202b31000000000000000000000000000000000000600082015250565b600061325e600e8361285b565b915061326982613228565b602082019050919050565b6000602082019050818103600083015261328d81613251565b9050919050565b60006040820190506132a960008301856129dc565b6132b66020830184612558565b9392505050565b7f4c656e677468206d69736d617463680000000000000000000000000000000000600082015250565b60006132f3600f8361285b565b91506132fe826132bd565b602082019050919050565b60006020820190508181036000830152613322816132e6565b9050919050565b7f456d707479207661756c74000000000000000000000000000000000000000000600082015250565b600061335f600b8361285b565b915061336a82613329565b602082019050919050565b6000602082019050818103600083015261338e81613352565b9050919050565b6000602082840312156133ab576133aa6124eb565b5b60006133b9848285016127c5565b91505092915050565b600082905092915050565b7f4e487b7100000000000000000000000000000000000000000000000000000000600052604160045260246000fd5b7f4e487b7100000000000000000000000000000000000000000000000000000000600052602260045260246000fd5b6000600282049050600182168061344357607f821691505b602082108103613456576134556133fc565b5b50919050565b60008190508160005260206000209050919050565b60006020601f8301049050919050565b600082821b905092915050565b6000600883026134be7fffffffffffffffffffffffffffffffffffffffffffffffffffffffffffffffff82613481565b6134c88683613481565b95508019841693508086168417925050509392505050565b6000819050919050565b60006135056135006134fb846124f5565b6134e0565b6124f5565b9050919050565b6000819050919050565b61351f836134ea565b61353361352b8261350c565b84845461348e565b825550505050565b600090565b61354861353b565b613553818484613516565b505050565b5b818110156135775761356c600082613540565b600181019050613559565b5050565b601f8211156135bc5761358d8161345c565b61359684613471565b810160208510156135a5578190505b6135b96135b185613471565b830182613558565b50505b505050565b600082821c905092915050565b60006135df600019846008026135c1565b1980831691505092915050565b60006135f883836135ce565b9150826002028217905092915050565b61361283836133c2565b67ffffffffffffffff81111561362b5761362a6133cd565b5b613635825461342b565b61364082828561357b565b6000601f83116001811461366f576000841561365d578287013590505b61366785826135ec565b8655506136cf565b601f19841661367d8661345c565b60005b828110156136a557848901358255600182019150602085019450602081019050613680565b868310156136c257848901356136be601f8916826135ce565b8355505b6001600288020188555050505b50505050505050565b60006136e3826124f5565b91507fffffffffffffffffffffffffffffffffffffffffffffffffffffffffffffffff820361371557613714612f1a565b5b600182019050919050565b7f496e76616c696420737461746500000000000000000000000000000000000000600082015250565b6000613756600d8361285b565b915061376182613720565b602082019050919050565b6000602082019050818103600083015261378581613749565b9050919050565b7f41756374696f6e207374696c6c2072756e6e696e670000000000000000000000600082015250565b60006137c260158361285b565b91506137cd8261378c565b602082019050919050565b600060208201905081810360008301526137f1816137b5565b9050919050565b6000819050919050565b600061381d613818613813846137f8565b6134e0565b6124f5565b9050919050565b61382d81613802565b82525050565b600060408201905061384860008301856129dc565b6138556020830184613824565b9392505050565b7f41756374696f6e20657869737473000000000000000000000000000000000000600082015250565b6000613892600e8361285b565b915061389d8261385c565b602082019050919050565b600060208201905081810360008301526138c181613885565b9050919050565b7f496e76616c6964206475726174696f6e00000000000000000000000000000000600082015250565b60006138fe60108361285b565b9150613909826138c8565b602082019050919050565b6000602082019050818103600083015261392d816138f1565b9050919050565b600061393f826124f5565b915061394a836124f5565b925082820390508181111561396257613961612f1a565b5b9291505056fea26469706673582212208a13ea1eae5eea4bc265007ed18ba84ae500bd36dbb7d04c3a96a51cfd2cca5664736f6c634300081c0033",
  "linkReferences": {},
  "deployedLinkReferences": {}
}