{
  "_format": "hh-sol-artifact-1",
  "contractName": "VaultAuction",
  "sourceName": "contracts/VaultAuction.sol",
  "abi": [
    {
      "inputs": [],
      "name": "ReentrancyGuardReentrantCall",
      "type": "error"
    },
    {
      "anonymous": false,
      "inputs": [
        {
          "indexed": true,
          "internalType": "uint256",
          "name": "vaultId",
          "type": "uint256"
        }
      ],
      "name": "AuctionCancelled",
      "type": "event"
    },
    {
      "anonymous": false,
      "inputs": [
        {
          "indexed": true,
          "internalType": "uint256",
          "name": "vaultId",
          "type": "uint256"
        },
        {
          "indexed": false,
          "internalType": "uint256",
          "name": "startPrice",
          "type": "uint256"
        }
      ],
      "name": "AuctionCreated",
      "type": "event"
    },
    {
      "anonymous": false,
      "inputs": [
        {
          "indexed": true,
          "internalType": "uint256",
          "name": "vaultId",
          "type": "uint256"
        },
        {
          "indexed": false,
          "internalType": "address",
          "name": "winner",
          "type": "address"
        },
        {
          "indexed": false,
          "internalType": "uint256",
          "name": "finalPrice",
          "type": "uint256"
        }
      ],
      "name": "AuctionEnded",
      "type": "event"
    },
    {
      "anonymous": false,
      "inputs": [
        {
          "indexed": true,
          "internalType": "uint256",
          "name": "vaultId",
          "type": "uint256"
        },
        {
          "indexed": false,
          "internalType": "uint256",
          "name": "startTime",
          "type": "uint256"
        },
        {
          "indexed": false,
          "internalType": "uint256",
          "name": "endTime",
          "type": "uint256"
        }
      ],
      "name": "AuctionStarted",
      "type": "event"
    },
    {
      "anonymous": false,
      "inputs": [
        {
          "indexed": true,
          "internalType": "uint256",
          "name": "vaultId",
          "type": "uint256"
        },
        {
          "indexed": false,
          "internalType": "address",
          "name": "bidder",
          "type": "address"
        },
        {
          "indexed": false,
          "internalType": "uint256",
          "name": "amount",
          "type": "uint256"
        }
      ],
      "name": "BidPlaced",
      "type": "event"
    },
    {
      "anonymous": false,
      "inputs": [
        {
          "indexed": true,
          "internalType": "uint256",
          "name": "vaultId",
          "type": "uint256"
        }
      ],
      "name": "VaultCancelled",
      "type": "event"
    },
    {
      "anonymous": false,
      "inputs": [
        {
          "indexed": true,
          "internalType": "uint256",
          "name": "vaultId",
          "type": "uint256"
        },
        {
          "indexed": true,
          "internalType": "address",
          "name": "seller",
          "type": "address"
        }
      ],
      "name": "VaultCreated",
      "type": "event"
    },
    {
      "inputs": [],
      "name": "BID_INCREMENT",
      "outputs": [
        {
          "internalType": "uint256",
          "name": "",
          "type": "uint256"
        }
      ],
      "stateMutability": "view",
      "type": "function"
    },
    {
      "inputs": [
        {
          "internalType": "uint256",
          "name": "",
          "type": "uint256"
        }
      ],
      "name": "auctionIds",
      "outputs": [
        {
          "internalType": "uint256",
          "name": "",
          "type": "uint256"
        }
      ],
      "stateMutability": "view",
      "type": "function"
    },
    {
      "inputs": [
        {
          "internalType": "uint256",
          "name": "vaultId",
          "type": "uint256"
        }
      ],
      "name": "bid",
      "outputs": [],
      "stateMutability": "payable",
      "type": "function"
    },
    {
      "inputs": [
        {
          "internalType": "uint256",
          "name": "vaultId",
          "type": "uint256"
        }
      ],
      "name": "cancelAuction",
      "outputs": [],
      "stateMutability": "nonpayable",
      "type": "function"
    },
    {
      "inputs": [
        {
          "internalType": "uint256",
          "name": "vaultId",
          "type": "uint256"
        }
      ],
      "name": "cancelVault",
      "outputs": [],
      "stateMutability": "nonpayable",
      "type": "function"
    },
    {
      "inputs": [
        {
          "internalType": "uint256",
          "name": "vaultId",
          "type": "uint256"
        },
        {
          "internalType": "uint256",
          "name": "startPrice",
          "type": "uint256"
        },
        {
          "internalType": "uint256",
          "name": "auctionDuration",
          "type": "uint256"
        }
      ],
      "name": "createAuction",
      "outputs": [],
      "stateMutability": "nonpayable",
      "type": "function"
    },
    {
      "inputs": [
        {
          "internalType": "address[]",
          "name": "nftAddresses",
          "type": "address[]"
        },
        {
          "internalType": "uint256[]",
          "name": "tokenIds",
          "type": "uint256[]"
        },
        {
          "internalType": "string",
          "name": "name",
          "type": "string"
        },
        {
          "internalType": "string",
          "name": "description",
          "type": "string"
        }
      ],
      "name": "createVault",
      "outputs": [],
      "stateMutability": "nonpayable",
      "type": "function"
    },
    {
      "inputs": [
        {
          "internalType": "uint256",
          "name": "vaultId",
          "type": "uint256"
        }
      ],
      "name": "endAuction",
      "outputs": [],
      "stateMutability": "nonpayable",
      "type": "function"
    },
    {
      "inputs": [],
      "name": "getAllAuctions",
      "outputs": [
        {
          "internalType": "uint256[]",
          "name": "",
          "type": "uint256[]"
        }
      ],
      "stateMutability": "view",
      "type": "function"
    },
    {
      "inputs": [
        {
          "internalType": "uint256",
          "name": "vaultId",
          "type": "uint256"
        }
      ],
      "name": "getAuction",
      "outputs": [
        {
          "components": [
            {
              "internalType": "address",
              "name": "seller",
              "type": "address"
            },
            {
              "internalType": "uint256",
              "name": "currentBid",
              "type": "uint256"
            },
            {
              "internalType": "address",
              "name": "highestBidder",
              "type": "address"
            },
            {
              "internalType": "uint256",
              "name": "startTime",
              "type": "uint256"
            },
            {
              "internalType": "uint256",
              "name": "lastBidTime",
              "type": "uint256"
            },
            {
              "internalType": "uint256",
              "name": "bidWindow",
              "type": "uint256"
            },
            {
              "internalType": "uint256",
              "name": "auctionDuration",
              "type": "uint256"
            },
            {
              "internalType": "uint256",
              "name": "endTime",
              "type": "uint256"
            },
            {
              "internalType": "bool",
              "name": "active",
              "type": "bool"
            },
            {
              "internalType": "bool",
              "name": "ended",
              "type": "bool"
            },
            {
              "internalType": "uint256",
              "name": "startPrice",
              "type": "uint256"
            }
          ],
          "internalType": "struct VaultAuction.Auction",
          "name": "",
          "type": "tuple"
        }
      ],
      "stateMutability": "view",
      "type": "function"
    },
    {
      "inputs": [
        {
          "internalType": "uint256",
          "name": "vaultId",
          "type": "uint256"
        }
      ],
      "name": "getAuctionCard",
      "outputs": [
        {
          "internalType": "string",
          "name": "name",
          "type": "string"
        },
        {
          "internalType": "string",
          "name": "description",
          "type": "string"
        },
        {
          "internalType": "bool",
          "name": "isLive",
          "type": "bool"
        },
        {
          "internalType": "bool",
          "name": "isEnded",
          "type": "bool"
        },
        {
          "internalType": "uint256",
          "name": "timeRemaining",
          "type": "uint256"
        },
        {
          "internalType": "uint256",
          "name": "minimumPrice",
          "type": "uint256"
        }
      ],
      "stateMutability": "view",
      "type": "function"
    },
    {
      "inputs": [
        {
          "internalType": "uint256",
          "name": "vaultId",
          "type": "uint256"
        }
      ],
      "name": "getAuctionTiming",
      "outputs": [
        {
          "internalType": "uint256",
          "name": "lastBidTime",
          "type": "uint256"
        },
        {
          "internalType": "uint256",
          "name": "bidWindow",
          "type": "uint256"
        },
        {
          "internalType": "uint256",
          "name": "endTime",
          "type": "uint256"
        },
        {
          "internalType": "bool",
          "name": "active",
          "type": "bool"
        },
        {
          "internalType": "bool",
          "name": "ended",
          "type": "bool"
        }
      ],
      "stateMutability": "view",
      "type": "function"
    },
    {
      "inputs": [
        {
          "internalType": "uint256",
          "name": "vaultId",
          "type": "uint256"
        }
      ],
      "name": "getVaultWithAuction",
      "outputs": [
        {
          "internalType": "string",
          "name": "name",
          "type": "string"
        },
        {
          "internalType": "string",
          "name": "description",
          "type": "string"
        },
        {
          "components": [
            {
              "internalType": "address",
              "name": "nftAddress",
              "type": "address"
            },
            {
              "internalType": "uint256",
              "name": "tokenId",
              "type": "uint256"
            }
          ],
          "internalType": "struct VaultAuction.NFTItem[]",
          "name": "nfts",
          "type": "tuple[]"
        },
        {
          "internalType": "address",
          "name": "seller",
          "type": "address"
        },
        {
          "internalType": "uint256",
          "name": "currentBid",
          "type": "uint256"
        },
        {
          "internalType": "address",
          "name": "highestBidder",
          "type": "address"
        },
        {
          "internalType": "uint256",
          "name": "lastBidTime",
          "type": "uint256"
        },
        {
          "internalType": "bool",
          "name": "active",
          "type": "bool"
        },
        {
          "internalType": "bool",
          "name": "ended",
          "type": "bool"
        },
        {
          "internalType": "uint256",
          "name": "startPrice",
          "type": "uint256"
        }
      ],
      "stateMutability": "view",
      "type": "function"
    },
    {
      "inputs": [
        {
          "internalType": "uint256",
          "name": "vaultId",
          "type": "uint256"
        },
        {
          "internalType": "address",
          "name": "user",
          "type": "address"
        }
      ],
      "name": "isVaultSeller",
      "outputs": [
        {
          "internalType": "bool",
          "name": "",
          "type": "bool"
        }
      ],
      "stateMutability": "view",
      "type": "function"
    },
    {
      "inputs": [
        {
          "internalType": "uint256",
          "name": "vaultId",
          "type": "uint256"
        }
      ],
      "name": "startAuction",
      "outputs": [],
      "stateMutability": "nonpayable",
      "type": "function"
    },
    {
      "inputs": [],
      "name": "vaultCount",
      "outputs": [
        {
          "internalType": "uint256",
          "name": "",
          "type": "uint256"
        }
      ],
      "stateMutability": "view",
      "type": "function"
    },
    {
      "inputs": [
        {
          "internalType": "uint256",
          "name": "",
          "type": "uint256"
        }
      ],
      "name": "vaults",
      "outputs": [
        {
          "components": [
            {
              "internalType": "address",
              "name": "seller",
              "type": "address"
            },
            {
              "internalType": "uint256",
              "name": "currentBid",
              "type": "uint256"
            },
            {
              "internalType": "address",
              "name": "highestBidder",
              "type": "address"
            },
            {
              "internalType": "uint256",
              "name": "startTime",
              "type": "uint256"
            },
            {
              "internalType": "uint256",
              "name": "lastBidTime",
              "type": "uint256"
            },
            {
              "internalType": "uint256",
              "name": "bidWindow",
              "type": "uint256"
            },
            {
              "internalType": "uint256",
              "name": "auctionDuration",
              "type": "uint256"
            },
            {
              "internalType": "uint256",
              "name": "endTime",
              "type": "uint256"
            },
            {
              "internalType": "bool",
              "name": "active",
              "type": "bool"
            },
            {
              "internalType": "bool",
              "name": "ended",
              "type": "bool"
            },
            {
              "internalType": "uint256",
              "name": "startPrice",
              "type": "uint256"
            }
          ],
          "internalType": "struct VaultAuction.Auction",
          "name": "auction",
          "type": "tuple"
        },
        {
          "internalType": "string",
          "name": "name",
          "type": "string"
        },
        {
          "internalType": "string",
          "name": "description",
          "type": "string"
        }
      ],
      "stateMutability": "view",
      "type": "function"
    }
  ],
  "bytecode": "0x6080604052348015600f57600080fd5b5060016000819055506139e7806100276000396000f3fe6080604052600436106100fe5760003560e01c80638c64ea4a11610095578063b9a2de3a11610064578063b9a2de3a1461036b578063cbd2bdfd14610394578063cda4beef146103bf578063e998838e146103e8578063ff3684d61461042a576100fe565b80638c64ea4a1461029757806396b5a755146102d6578063a7c6a100146102ff578063b033b97c1461032a576100fe565b806363c2c917116100d157806363c2c917146101ae57806363e03956146101d7578063705a311f1461021457806378bd79351461025a576100fe565b8063065de74c146101035780630cc1a4071461012c5780632a6433be14610155578063454a2ab314610192575b600080fd5b34801561010f57600080fd5b5061012a60048036038101906101259190612574565b610455565b005b34801561013857600080fd5b50610153600480360381019061014e9190612574565b61065b565b005b34801561016157600080fd5b5061017c60048036038101906101779190612574565b610a27565b60405161018991906125b0565b60405180910390f35b6101ac60048036038101906101a79190612574565b610a4b565b005b3480156101ba57600080fd5b506101d560048036038101906101d091906126dc565b610d32565b005b3480156101e357600080fd5b506101fe60048036038101906101f99190612823565b61106a565b60405161020b919061287e565b60405180910390f35b34801561022057600080fd5b5061023b60048036038101906102369190612574565b6110dc565b6040516102519a99989796959493929190612a34565b60405180910390f35b34801561026657600080fd5b50610281600480360381019061027c9190612574565b611387565b60405161028e9190612bd5565b60405180910390f35b3480156102a357600080fd5b506102be60048036038101906102b99190612574565b6114e0565b6040516102cd93929190612bf1565b60405180910390f35b3480156102e257600080fd5b506102fd60048036038101906102f89190612574565b61174d565b005b34801561030b57600080fd5b506103146119f3565b60405161032191906125b0565b60405180910390f35b34801561033657600080fd5b50610351600480360381019061034c9190612574565b6119f9565b604051610362959493929190612c39565b60405180910390f35b34801561037757600080fd5b50610392600480360381019061038d9190612574565b611a61565b005b3480156103a057600080fd5b506103a9611f5c565b6040516103b69190612d3b565b60405180910390f35b3480156103cb57600080fd5b506103e660048036038101906103e19190612d5d565b611fb4565b005b3480156103f457600080fd5b5061040f600480360381019061040a9190612574565b6121b3565b60405161042196959493929190612db0565b60405180910390f35b34801561043657600080fd5b5061043f612387565b60405161044c91906125b0565b60405180910390f35b806002600082815260200190815260200160002060010160000160009054906101000a900473ffffffffffffffffffffffffffffffffffffffff1673ffffffffffffffffffffffffffffffffffffffff163373ffffffffffffffffffffffffffffffffffffffff16146104fd576040517f08c379a00000000000000000000000000000000000000000000000000000000081526004016104f490612e6b565b60405180910390fd5b60006002600084815260200190815260200160002060010190508060080160009054906101000a900460ff1615610569576040517f08c379a000000000000000000000000000000000000000000000000000000000815260040161056090612ed7565b60405180910390fd5b60008160090154116105b0576040517f08c379a00000000000000000000000000000000000000000000000000000000081526004016105a790612f43565b60405180910390fd5b4281600301819055504281600401819055508060060154426105d29190612f92565b816007018190555060018160080160006101000a81548160ff02191690831515021790555060008160080160016101000a81548160ff021916908315150217905550827f44c53be110c6aa83aa83cd02e351ed172359268272ee1b5d31c0fe48db35c6c78260030154836007015460405161064e929190612fc6565b60405180910390a2505050565b806002600082815260200190815260200160002060010160000160009054906101000a900473ffffffffffffffffffffffffffffffffffffffff1673ffffffffffffffffffffffffffffffffffffffff163373ffffffffffffffffffffffffffffffffffffffff1614610703576040517f08c379a00000000000000000000000000000000000000000000000000000000081526004016106fa90612e6b565b60405180910390fd5b600060026000848152602001908152602001600020600101905060006002600085815260200190815260200160002090508160080160009054906101000a900460ff1615610786576040517f08c379a000000000000000000000000000000000000000000000000000000000815260040161077d9061303b565b60405180910390fd5b8160080160019054906101000a900460ff16156107d8576040517f08c379a00000000000000000000000000000000000000000000000000000000081526004016107cf906130a7565b60405180910390fd5b60005b81600001805490508110156108f857816000018181548110610800576107ff6130c7565b5b906000526020600020906002020160000160009054906101000a900473ffffffffffffffffffffffffffffffffffffffff1673ffffffffffffffffffffffffffffffffffffffff166323b872dd308560000160009054906101000a900473ffffffffffffffffffffffffffffffffffffffff16856000018581548110610889576108886130c7565b5b9060005260206000209060020201600101546040518463ffffffff1660e01b81526004016108b9939291906130f6565b600060405180830381600087803b1580156108d357600080fd5b505af11580156108e7573d6000803e3d6000fd5b5050505080806001019150506107db565b50600260008581526020019081526020016000206000808201600061091d91906123e3565b60018201600080820160006101000a81549073ffffffffffffffffffffffffffffffffffffffff021916905560018201600090556002820160006101000a81549073ffffffffffffffffffffffffffffffffffffffff0219169055600382016000905560048201600090556005820160009055600682016000905560078201600090556008820160006101000a81549060ff02191690556008820160016101000a81549060ff021916905560098201600090555050600b820160006109e29190612407565b600c820160006109f29190612407565b5050837f79142c75c3043943496c0c003aa076e8da7ed0f01f76c6b198ae5159b742c3f460405160405180910390a250505050565b60038181548110610a3757600080fd5b906000526020600020016000915090505481565b610a53612393565b60006002600083815260200190815260200160002060010190508060080160009054906101000a900460ff168015610a9a57508060080160019054906101000a900460ff16155b610ad9576040517f08c379a0000000000000000000000000000000000000000000000000000000008152600401610ad090613179565b60405180910390fd5b8060070154421115610b20576040517f08c379a0000000000000000000000000000000000000000000000000000000008152600401610b17906131e5565b60405180910390fd5b80600501548160040154610b349190612f92565b421115610b76576040517f08c379a0000000000000000000000000000000000000000000000000000000008152600401610b6d90613251565b60405180910390fd5b67016345785d8a00008160010154610b8e9190612f92565b3414610bcf576040517f08c379a0000000000000000000000000000000000000000000000000000000008152600401610bc6906132bd565b60405180910390fd5b600073ffffffffffffffffffffffffffffffffffffffff168160020160009054906101000a900473ffffffffffffffffffffffffffffffffffffffff1673ffffffffffffffffffffffffffffffffffffffff1614610c97578060020160009054906101000a900473ffffffffffffffffffffffffffffffffffffffff1673ffffffffffffffffffffffffffffffffffffffff166108fc82600101549081150290604051600060405180830381858888f19350505050158015610c95573d6000803e3d6000fd5b505b348160010181905550338160020160006101000a81548173ffffffffffffffffffffffffffffffffffffffff021916908373ffffffffffffffffffffffffffffffffffffffff160217905550428160040181905550817f0e54eff26401bf69b81b26f60bd85ef47f5d85275c1d268d84f68d6897431c473334604051610d1e9291906132dd565b60405180910390a250610d2f6123d9565b50565b858590508888905014610d7a576040517f08c379a0000000000000000000000000000000000000000000000000000000008152600401610d7190613352565b60405180910390fd5b60008888905011610dc0576040517f08c379a0000000000000000000000000000000000000000000000000000000008152600401610db7906133be565b60405180910390fd5b60006001549050600060026000838152602001908152602001600020905060005b8a8a9050811015610f93578a8a82818110610dff57610dfe6130c7565b5b9050602002016020810190610e1491906133de565b73ffffffffffffffffffffffffffffffffffffffff166323b872dd33308c8c86818110610e4457610e436130c7565b5b905060200201356040518463ffffffff1660e01b8152600401610e69939291906130f6565b600060405180830381600087803b158015610e8357600080fd5b505af1158015610e97573d6000803e3d6000fd5b505050508160000160405180604001604052808d8d85818110610ebd57610ebc6130c7565b5b9050602002016020810190610ed291906133de565b73ffffffffffffffffffffffffffffffffffffffff1681526020018b8b85818110610f0057610eff6130c7565b5b90506020020135815250908060018154018082558091505060019003906000526020600020906002020160009091909190915060008201518160000160006101000a81548173ffffffffffffffffffffffffffffffffffffffff021916908373ffffffffffffffffffffffffffffffffffffffff1602179055506020820151816001015550508080600101915050610de1565b50338160010160000160006101000a81548173ffffffffffffffffffffffffffffffffffffffff021916908373ffffffffffffffffffffffffffffffffffffffff160217905550858582600b019182610fed929190613651565b50838382600c019182611001929190613651565b506001600081548092919061101590613721565b91905055503373ffffffffffffffffffffffffffffffffffffffff16827fbf3e9c93de94306b70ac5b9411edf475545815333bf651b894b9eada6482c59460405160405180910390a350505050505050505050565b60008173ffffffffffffffffffffffffffffffffffffffff166002600085815260200190815260200160002060010160000160009054906101000a900473ffffffffffffffffffffffffffffffffffffffff1673ffffffffffffffffffffffffffffffffffffffff1614905092915050565b6060806060600080600080600080600080600260008d81526020019081526020016000209050600081600101905081600b0182600c01836000018360000160009054906101000a900473ffffffffffffffffffffffffffffffffffffffff1684600101548560020160009054906101000a900473ffffffffffffffffffffffffffffffffffffffff1686600401548760080160009054906101000a900460ff168860080160019054906101000a900460ff16896009015489805461119f90613474565b80601f01602080910402602001604051908101604052809291908181526020018280546111cb90613474565b80156112185780601f106111ed57610100808354040283529160200191611218565b820191906000526020600020905b8154815290600101906020018083116111fb57829003601f168201915b5050505050995088805461122b90613474565b80601f016020809104026020016040519081016040528092919081815260200182805461125790613474565b80156112a45780601f10611279576101008083540402835291602001916112a4565b820191906000526020600020905b81548152906001019060200180831161128757829003601f168201915b5050505050985087805480602002602001604051908101604052809291908181526020016000905b8282101561135e57838290600052602060002090600202016040518060400160405290816000820160009054906101000a900473ffffffffffffffffffffffffffffffffffffffff1673ffffffffffffffffffffffffffffffffffffffff1673ffffffffffffffffffffffffffffffffffffffff168152602001600182015481525050815260200190600101906112cc565b5050505097509b509b509b509b509b509b509b509b509b509b5050509193959799509193959799565b61138f612447565b60026000838152602001908152602001600020600101604051806101600160405290816000820160009054906101000a900473ffffffffffffffffffffffffffffffffffffffff1673ffffffffffffffffffffffffffffffffffffffff1673ffffffffffffffffffffffffffffffffffffffff168152602001600182015481526020016002820160009054906101000a900473ffffffffffffffffffffffffffffffffffffffff1673ffffffffffffffffffffffffffffffffffffffff1673ffffffffffffffffffffffffffffffffffffffff16815260200160038201548152602001600482015481526020016005820154815260200160068201548152602001600782015481526020016008820160009054906101000a900460ff161515151581526020016008820160019054906101000a900460ff161515151581526020016009820154815250509050919050565b600260205280600052604060002060009150905080600101604051806101600160405290816000820160009054906101000a900473ffffffffffffffffffffffffffffffffffffffff1673ffffffffffffffffffffffffffffffffffffffff1673ffffffffffffffffffffffffffffffffffffffff168152602001600182015481526020016002820160009054906101000a900473ffffffffffffffffffffffffffffffffffffffff1673ffffffffffffffffffffffffffffffffffffffff1673ffffffffffffffffffffffffffffffffffffffff16815260200160038201548152602001600482015481526020016005820154815260200160068201548152602001600782015481526020016008820160009054906101000a900460ff161515151581526020016008820160019054906101000a900460ff161515151581526020016009820154815250509080600b01805461163c90613474565b80601f016020809104026020016040519081016040528092919081815260200182805461166890613474565b80156116b55780601f1061168a576101008083540402835291602001916116b5565b820191906000526020600020905b81548152906001019060200180831161169857829003601f168201915b50505050509080600c0180546116ca90613474565b80601f01602080910402602001604051908101604052809291908181526020018280546116f690613474565b80156117435780601f1061171857610100808354040283529160200191611743565b820191906000526020600020905b81548152906001019060200180831161172657829003601f168201915b5050505050905083565b806002600082815260200190815260200160002060010160000160009054906101000a900473ffffffffffffffffffffffffffffffffffffffff1673ffffffffffffffffffffffffffffffffffffffff163373ffffffffffffffffffffffffffffffffffffffff16146117f5576040517f08c379a00000000000000000000000000000000000000000000000000000000081526004016117ec90612e6b565b60405180910390fd5b60006002600084815260200190815260200160002060010190508060080160009054906101000a900460ff1615611861576040517f08c379a00000000000000000000000000000000000000000000000000000000081526004016118589061303b565b60405180910390fd5b8060080160019054906101000a900460ff16156118b3576040517f08c379a00000000000000000000000000000000000000000000000000000000081526004016118aa906130a7565b60405180910390fd5b60008160090154116118fa576040517f08c379a00000000000000000000000000000000000000000000000000000000081526004016118f190612f43565b60405180910390fd5b60026000848152602001908152602001600020600101600080820160006101000a81549073ffffffffffffffffffffffffffffffffffffffff021916905560018201600090556002820160006101000a81549073ffffffffffffffffffffffffffffffffffffffff0219169055600382016000905560048201600090556005820160009055600682016000905560078201600090556008820160006101000a81549060ff02191690556008820160016101000a81549060ff021916905560098201600090555050827f2809c7e17bf978fbc7194c0a694b638c4215e9140cacc6c38ca36010b45697df60405160405180910390a2505050565b60015481565b6000806000806000806002600088815260200190815260200160002060010190508060040154816005015482600701548360080160009054906101000a900460ff168460080160019054906101000a900460ff16955095509550955095505091939590929450565b611a69612393565b600060026000838152602001908152602001600020600101905060006002600084815260200190815260200160002090508160080160009054906101000a900460ff168015611ac757508160080160019054906101000a900460ff16155b611b06576040517f08c379a0000000000000000000000000000000000000000000000000000000008152600401611afd906137b5565b60405180910390fd5b8160070154421180611b2a575081600501548260040154611b279190612f92565b42115b611b69576040517f08c379a0000000000000000000000000000000000000000000000000000000008152600401611b6090613821565b60405180910390fd5b60008260080160006101000a81548160ff02191690831515021790555060018260080160016101000a81548160ff021916908315150217905550600073ffffffffffffffffffffffffffffffffffffffff168260020160009054906101000a900473ffffffffffffffffffffffffffffffffffffffff1673ffffffffffffffffffffffffffffffffffffffff1614611df25760005b8160000180549050811015611d1b57816000018181548110611c2357611c226130c7565b5b906000526020600020906002020160000160009054906101000a900473ffffffffffffffffffffffffffffffffffffffff1673ffffffffffffffffffffffffffffffffffffffff166323b872dd308560020160009054906101000a900473ffffffffffffffffffffffffffffffffffffffff16856000018581548110611cac57611cab6130c7565b5b9060005260206000209060020201600101546040518463ffffffff1660e01b8152600401611cdc939291906130f6565b600060405180830381600087803b158015611cf657600080fd5b505af1158015611d0a573d6000803e3d6000fd5b505050508080600101915050611bfe565b508160000160009054906101000a900473ffffffffffffffffffffffffffffffffffffffff1673ffffffffffffffffffffffffffffffffffffffff166108fc83600101549081150290604051600060405180830381858888f19350505050158015611d8a573d6000803e3d6000fd5b50827fd2aa34a4fdbbc6dff6a3e56f46e0f3ae2a31d7785ff3487aa5c95c642acea5018360020160009054906101000a900473ffffffffffffffffffffffffffffffffffffffff168460010154604051611de59291906132dd565b60405180910390a2611f4f565b60005b8160000180549050811015611f1257816000018181548110611e1a57611e196130c7565b5b906000526020600020906002020160000160009054906101000a900473ffffffffffffffffffffffffffffffffffffffff1673ffffffffffffffffffffffffffffffffffffffff166323b872dd308560000160009054906101000a900473ffffffffffffffffffffffffffffffffffffffff16856000018581548110611ea357611ea26130c7565b5b9060005260206000209060020201600101546040518463ffffffff1660e01b8152600401611ed3939291906130f6565b600060405180830381600087803b158015611eed57600080fd5b505af1158015611f01573d6000803e3d6000fd5b505050508080600101915050611df5565b50827fd2aa34a4fdbbc6dff6a3e56f46e0f3ae2a31d7785ff3487aa5c95c642acea501600080604051611f4692919061387c565b60405180910390a25b5050611f596123d9565b50565b60606003805480602002602001604051908101604052809291908181526020018280548015611faa57602002820191906000526020600020905b815481526020019060010190808311611f96575b5050505050905090565b826002600082815260200190815260200160002060010160000160009054906101000a900473ffffffffffffffffffffffffffffffffffffffff1673ffffffffffffffffffffffffffffffffffffffff163373ffffffffffffffffffffffffffffffffffffffff161461205c576040517f08c379a000000000000000000000000000000000000000000000000000000000815260040161205390612e6b565b60405180910390fd5b60006002600086815260200190815260200160002060010190508060080160009054906101000a900460ff161580156120a457508060080160019054906101000a900460ff16155b6120e3576040517f08c379a00000000000000000000000000000000000000000000000000000000081526004016120da906138f1565b60405180910390fd5b60008311612126576040517f08c379a000000000000000000000000000000000000000000000000000000000815260040161211d9061395d565b60405180910390fd5b838160090181905550838160010181905550603c81600501819055508281600601819055506003859080600181540180825580915050600190039060005260206000200160009091909190915055847fe00a2da3a0f34a566402a244ab7ec63f8ab7472591cb18edf3269aa00461a410856040516121a491906125b0565b60405180910390a25050505050565b6060806000806000806000600260008981526020019081526020016000209050600081600101905060008160080160019054906101000a900460ff16156121fd5760009050612225565b816007015442106122115760009050612224565b428260070154612221919061397d565b90505b5b82600b0183600c018360080160009054906101000a900460ff168460080160019054906101000a900460ff1684866009015485805461226390613474565b80601f016020809104026020016040519081016040528092919081815260200182805461228f90613474565b80156122dc5780601f106122b1576101008083540402835291602001916122dc565b820191906000526020600020905b8154815290600101906020018083116122bf57829003601f168201915b505050505095508480546122ef90613474565b80601f016020809104026020016040519081016040528092919081815260200182805461231b90613474565b80156123685780601f1061233d57610100808354040283529160200191612368565b820191906000526020600020905b81548152906001019060200180831161234b57829003601f168201915b5050505050945098509850985098509850985050505091939550919395565b67016345785d8a000081565b6002600054036123cf576040517f3ee5aeb500000000000000000000000000000000000000000000000000000000815260040160405180910390fd5b6002600081905550565b6001600081905550565b508054600082556002029060005260206000209081019061240491906124d1565b50565b50805461241390613474565b6000825580601f106124255750612444565b601f0160209004906000526020600020908101906124439190612517565b5b50565b604051806101600160405280600073ffffffffffffffffffffffffffffffffffffffff16815260200160008152602001600073ffffffffffffffffffffffffffffffffffffffff1681526020016000815260200160008152602001600081526020016000815260200160008152602001600015158152602001600015158152602001600081525090565b5b8082111561251357600080820160006101000a81549073ffffffffffffffffffffffffffffffffffffffff02191690556001820160009055506002016124d2565b5090565b5b80821115612530576000816000905550600101612518565b5090565b600080fd5b600080fd5b6000819050919050565b6125518161253e565b811461255c57600080fd5b50565b60008135905061256e81612548565b92915050565b60006020828403121561258a57612589612534565b5b60006125988482850161255f565b91505092915050565b6125aa8161253e565b82525050565b60006020820190506125c560008301846125a1565b92915050565b600080fd5b600080fd5b600080fd5b60008083601f8401126125f0576125ef6125cb565b5b8235905067ffffffffffffffff81111561260d5761260c6125d0565b5b602083019150836020820283011115612629576126286125d5565b5b9250929050565b60008083601f840112612646576126456125cb565b5b8235905067ffffffffffffffff811115612663576126626125d0565b5b60208301915083602082028301111561267f5761267e6125d5565b5b9250929050565b60008083601f84011261269c5761269b6125cb565b5b8235905067ffffffffffffffff8111156126b9576126b86125d0565b5b6020830191508360018202830111156126d5576126d46125d5565b5b9250929050565b6000806000806000806000806080898b0312156126fc576126fb612534565b5b600089013567ffffffffffffffff81111561271a57612719612539565b5b6127268b828c016125da565b9850985050602089013567ffffffffffffffff81111561274957612748612539565b5b6127558b828c01612630565b9650965050604089013567ffffffffffffffff81111561277857612777612539565b5b6127848b828c01612686565b9450945050606089013567ffffffffffffffff8111156127a7576127a6612539565b5b6127b38b828c01612686565b92509250509295985092959890939650565b600073ffffffffffffffffffffffffffffffffffffffff82169050919050565b60006127f0826127c5565b9050919050565b612800816127e5565b811461280b57600080fd5b50565b60008135905061281d816127f7565b92915050565b6000806040838503121561283a57612839612534565b5b60006128488582860161255f565b92505060206128598582860161280e565b9150509250929050565b60008115159050919050565b61287881612863565b82525050565b6000602082019050612893600083018461286f565b92915050565b600081519050919050565b600082825260208201905092915050565b60005b838110156128d35780820151818401526020810190506128b8565b60008484015250505050565b6000601f19601f8301169050919050565b60006128fb82612899565b61290581856128a4565b93506129158185602086016128b5565b61291e816128df565b840191505092915050565b600081519050919050565b600082825260208201905092915050565b6000819050602082019050919050565b61295e816127e5565b82525050565b61296d8161253e565b82525050565b6040820160008201516129896000850182612955565b50602082015161299c6020850182612964565b50505050565b60006129ae8383612973565b60408301905092915050565b6000602082019050919050565b60006129d282612929565b6129dc8185612934565b93506129e783612945565b8060005b83811015612a185781516129ff88826129a2565b9750612a0a836129ba565b9250506001810190506129eb565b5085935050505092915050565b612a2e816127e5565b82525050565b6000610140820190508181036000830152612a4f818d6128f0565b90508181036020830152612a63818c6128f0565b90508181036040830152612a77818b6129c7565b9050612a86606083018a612a25565b612a9360808301896125a1565b612aa060a0830188612a25565b612aad60c08301876125a1565b612aba60e083018661286f565b612ac861010083018561286f565b612ad66101208301846125a1565b9b9a5050505050505050505050565b612aee81612863565b82525050565b61016082016000820151612b0b6000850182612955565b506020820151612b1e6020850182612964565b506040820151612b316040850182612955565b506060820151612b446060850182612964565b506080820151612b576080850182612964565b5060a0820151612b6a60a0850182612964565b5060c0820151612b7d60c0850182612964565b5060e0820151612b9060e0850182612964565b50610100820151612ba5610100850182612ae5565b50610120820151612bba610120850182612ae5565b50610140820151612bcf610140850182612964565b50505050565b600061016082019050612beb6000830184612af4565b92915050565b60006101a082019050612c076000830186612af4565b818103610160830152612c1a81856128f0565b9050818103610180830152612c2f81846128f0565b9050949350505050565b600060a082019050612c4e60008301886125a1565b612c5b60208301876125a1565b612c6860408301866125a1565b612c75606083018561286f565b612c82608083018461286f565b9695505050505050565b600081519050919050565b600082825260208201905092915050565b6000819050602082019050919050565b6000612cc48383612964565b60208301905092915050565b6000602082019050919050565b6000612ce882612c8c565b612cf28185612c97565b9350612cfd83612ca8565b8060005b83811015612d2e578151612d158882612cb8565b9750612d2083612cd0565b925050600181019050612d01565b5085935050505092915050565b60006020820190508181036000830152612d558184612cdd565b905092915050565b600080600060608486031215612d7657612d75612534565b5b6000612d848682870161255f565b9350506020612d958682870161255f565b9250506040612da68682870161255f565b9150509250925092565b600060c0820190508181036000830152612dca81896128f0565b90508181036020830152612dde81886128f0565b9050612ded604083018761286f565b612dfa606083018661286f565b612e0760808301856125a1565b612e1460a08301846125a1565b979650505050505050565b7f4e6f74207661756c742073656c6c657200000000000000000000000000000000600082015250565b6000612e556010836128a4565b9150612e6082612e1f565b602082019050919050565b60006020820190508181036000830152612e8481612e48565b9050919050565b7f416c726561647920616374697665000000000000000000000000000000000000600082015250565b6000612ec1600e836128a4565b9150612ecc82612e8b565b602082019050919050565b60006020820190508181036000830152612ef081612eb4565b9050919050565b7f41756374696f6e206e6f74206372656174656400000000000000000000000000600082015250565b6000612f2d6013836128a4565b9150612f3882612ef7565b602082019050919050565b60006020820190508181036000830152612f5c81612f20565b9050919050565b7f4e487b7100000000000000000000000000000000000000000000000000000000600052601160045260246000fd5b6000612f9d8261253e565b9150612fa88361253e565b9250828201905080821115612fc057612fbf612f63565b5b92915050565b6000604082019050612fdb60008301856125a1565b612fe860208301846125a1565b9392505050565b7f41756374696f6e20616c72656164792073746172746564000000000000000000600082015250565b60006130256017836128a4565b915061303082612fef565b602082019050919050565b6000602082019050818103600083015261305481613018565b9050919050565b7f41756374696f6e20616c726561647920656e6465640000000000000000000000600082015250565b60006130916015836128a4565b915061309c8261305b565b602082019050919050565b600060208201905081810360008301526130c081613084565b9050919050565b7f4e487b7100000000000000000000000000000000000000000000000000000000600052603260045260246000fd5b600060608201905061310b6000830186612a25565b6131186020830185612a25565b61312560408301846125a1565b949350505050565b7f41756374696f6e20696e61637469766500000000000000000000000000000000600082015250565b60006131636010836128a4565b915061316e8261312d565b602082019050919050565b6000602082019050818103600083015261319281613156565b9050919050565b7f41756374696f6e206475726174696f6e20656e64656400000000000000000000600082015250565b60006131cf6016836128a4565b91506131da82613199565b602082019050919050565b600060208201905081810360008301526131fe816131c2565b9050919050565b7f4269642077696e646f7720657870697265640000000000000000000000000000600082015250565b600061323b6012836128a4565b915061324682613205565b602082019050919050565b6000602082019050818103600083015261326a8161322e565b9050919050565b7f426964206d757374206265202b302e3120514945000000000000000000000000600082015250565b60006132a76014836128a4565b91506132b282613271565b602082019050919050565b600060208201905081810360008301526132d68161329a565b9050919050565b60006040820190506132f26000830185612a25565b6132ff60208301846125a1565b9392505050565b7f4c656e677468206d69736d617463680000000000000000000000000000000000600082015250565b600061333c600f836128a4565b915061334782613306565b602082019050919050565b6000602082019050818103600083015261336b8161332f565b9050919050565b7f456d707479207661756c74000000000000000000000000000000000000000000600082015250565b60006133a8600b836128a4565b91506133b382613372565b602082019050919050565b600060208201905081810360008301526133d78161339b565b9050919050565b6000602082840312156133f4576133f3612534565b5b60006134028482850161280e565b91505092915050565b600082905092915050565b7f4e487b7100000000000000000000000000000000000000000000000000000000600052604160045260246000fd5b7f4e487b7100000000000000000000000000000000000000000000000000000000600052602260045260246000fd5b6000600282049050600182168061348c57607f821691505b60208210810361349f5761349e613445565b5b50919050565b60008190508160005260206000209050919050565b60006020601f8301049050919050565b600082821b905092915050565b6000600883026135077fffffffffffffffffffffffffffffffffffffffffffffffffffffffffffffffff826134ca565b61351186836134ca565b95508019841693508086168417925050509392505050565b6000819050919050565b600061354e6135496135448461253e565b613529565b61253e565b9050919050565b6000819050919050565b61356883613533565b61357c61357482613555565b8484546134d7565b825550505050565b600090565b613591613584565b61359c81848461355f565b505050565b5b818110156135c0576135b5600082613589565b6001810190506135a2565b5050565b601f821115613605576135d6816134a5565b6135df846134ba565b810160208510156135ee578190505b6136026135fa856134ba565b8301826135a1565b50505b505050565b600082821c905092915050565b60006136286000198460080261360a565b1980831691505092915050565b60006136418383613617565b9150826002028217905092915050565b61365b838361340b565b67ffffffffffffffff81111561367457613673613416565b5b61367e8254613474565b6136898282856135c4565b6000601f8311600181146136b857600084156136a6578287013590505b6136b08582613635565b865550613718565b601f1984166136c6866134a5565b60005b828110156136ee578489013582556001820191506020850194506020810190506136c9565b8683101561370b5784890135613707601f891682613617565b8355505b6001600288020188555050505b50505050505050565b600061372c8261253e565b91507fffffffffffffffffffffffffffffffffffffffffffffffffffffffffffffffff820361375e5761375d612f63565b5b600182019050919050565b7f496e76616c696420737461746500000000000000000000000000000000000000600082015250565b600061379f600d836128a4565b91506137aa82613769565b602082019050919050565b600060208201905081810360008301526137ce81613792565b9050919050565b7f41756374696f6e207374696c6c2072756e6e696e670000000000000000000000600082015250565b600061380b6015836128a4565b9150613816826137d5565b602082019050919050565b6000602082019050818103600083015261383a816137fe565b9050919050565b6000819050919050565b600061386661386161385c84613841565b613529565b61253e565b9050919050565b6138768161384b565b82525050565b60006040820190506138916000830185612a25565b61389e602083018461386d565b9392505050565b7f41756374696f6e20657869737473000000000000000000000000000000000000600082015250565b60006138db600e836128a4565b91506138e6826138a5565b602082019050919050565b6000602082019050818103600083015261390a816138ce565b9050919050565b7f496e76616c6964206475726174696f6e00000000000000000000000000000000600082015250565b60006139476010836128a4565b915061395282613911565b602082019050919050565b600060208201905081810360008301526139768161393a565b9050919050565b60006139888261253e565b91506139938361253e565b92508282039050818111156139ab576139aa612f63565b5b9291505056fea26469706673582212203150fbeb93714e6d642300a2fc6431ac6d701e8b0223631eb3efa24f860cba2464736f6c634300081c0033",
  "linkReferences": {},
  "deployedLinkReferences": {}
}